:020000020000FC
:1000000019C01895189575C21895189518951895D2
:10001000189518951895189518951895BFC21895A4
:1000200018951895ECC2189501C318951895189550
:1000300018951895CFEFD2E0DEBFCDBF1124A0E018
:10004000B2E0CFE0D0E0C093C400D093C500C8EDCB
:10005000C093C100C6E0C093C2001092200110926C
:1000600021011092420110924301C0916E00C260C2
:10007000C0936E00C4B5C260C4BDC5B5C160C5BD86
:10008000C3E9C7BDC0916800C160C0936800C0915A
:100090006B00CF63C0936B00C5B933B114B8CFE325
:1000A000C7B97894C6E9C0934401C6E9C093450135
:1000B000C6E9C0934601C6E9C0934701C0E0C093BA
:1000C0004801C0E0C0934901C0E0C0934A01C0E0CC
:1000D000C0934B01C0E0C0935C01C0E0C0935D01E0
:1000E000C0E0C0935E01C0E0C0935F01C0E0C09378
:1000F0006001C0E0C0936101C0E0C0936201C0E054
:10010000C0936301C8E0C0936401C8E0C093650177
:10011000C8E0C0936601C8E0C0936701C8E0C0931F
:100120006801C8E0C0936901C8E0C0936A01C8E0F3
:10013000C0936B01C0E0C0936C01C0E0C0936D013F
:10014000C0E0C0936E01C0E0C0936F01C0E0C093F7
:100150007001C0E0C0937101C0E0C0937201C0E0C3
:10016000C0937301ECE6F6E07CD12090440130901E
:1001700045014090460150904701609048017090C1
:10018000490180904A0190904B018AD082D101D0E0
:10019000FCCFCF93DF93EF93FF93CF7DC83491F0E3
:1001A000C934A1F0CF34A1F0C435A1F0C335A1F01A
:1001B000CD3409F1C13471F1C535D9F1C13509F03A
:1001C00047C046C0E2E8F6E04CD142C0F4D040C09F
:1001D000D7D03EC084D03CC063D0C770EC2FF1E0D4
:1001E000F0967496C05D55D15BD0DC2F59D035D0D8
:1001F00023D1C0832DC054D0C770EC2FF1E0F0960E
:10020000BC96C05D46D14CD0DC2F4AD026D014D14C
:10021000C0831EC045D0C770EC2FF1E0F096FC966D
:10022000C05D37D13DD0DC2F3BD017D005D1C08386
:100230000FC036D0C770EC2FF1E0F096F496C05D99
:1002400028D12ED0DC2F2CD008D0F6D0C08300C00F
:10025000FF91EF91DF91CF910895DF93D053DA3082
:1002600018F0D05DDF7DD753C053CA3018F0C05DA1
:10027000CF7DC753DF70CF70DD0FDD0FDD0FDD0FDA
:10028000CD2BDF910895DF93EF93C1E0D091200152
:10029000E0912101ED1708F0C0E0EF91DF910895A2
:1002A000DF93EF93FF937894EEDFCC23E9F3F89498
:1002B000C0912001E0912101EC1730F4F1E030967B
:1002C000D191E050EC1719F410922001EE27E09341
:1002D0002101CD2F7894FF91EF91DF910895CF9375
:1002E000CDE4D7D0C0915C01A7D0C0915D01A4D06E
:1002F000C0915E01A1D0C0915F019ED0C09160010C
:100300009BD0C091610198D0C091620195D0C091FD
:10031000630192D0C1E4BDD0C0916C018DD0C09179
:100320006D018AD0C0916E0187D0C0916F0184D0D9
:10033000C091700181D0C09171017ED0C0917201D5
:100340007BD0C091730178D0CDE4A3D0C09164017B
:1003500073D0C091650170D0C09166016DD0C0911D
:1003600067016AD0C091680167D0C091690164D00B
:10037000C0916A0161D0C0916B015ED0CF910895A8
:10038000CF93C091440158D0C091450155D0C09140
:10039000460152D0C09147014FD0C09148014CD086
:1003A000C091490149D0C0914A0146D0C0914B014A
:1003B00043D0CF910895CF93C0914C013DD0C091CF
:1003C0004D013AD0C0914E0137D0C0914F0134D089
:1003D000C091500131D0C09151012ED0C091520135
:1003E0002BD0C091530128D0CF910895CF93C22D27
:1003F00023D0C32D21D0C42D1FD0C52D1DD0C62D77
:100400001BD0C72D19D0C82D17D0C92D15D0CF910D
:100410000895CF93CA2D10D0CB2D0ED0CC2D0CD05B
:10042000CD2D0AD0CE2D08D0CF2D06D0C02F04D090
:10043000C12F02D0CF910895CF93CF93C07FC6959F
:10044000C695C695C695CA3008F0C95FC05D21D073
:10045000CF91CF70CA3008F0C95FC05D1AD0CF917C
:100460000895CF93EF93FF93C591C03011F011D051
:10047000FBCFFF91EF91CF910895CF93EF93FF932F
:10048000C191C03011F005D0FBCFFF91EF91CF911A
:100490000895CF93DF93EF93FF93F894E091420197
:1004A000E03200F5F1E0B296C193E252E0934201EE
:1004B000C091C000C5FF10C0CE2FE0914301F1E014
:1004C000B296D191E252D093C600EC1719F4109273
:1004D0004201EE27E09343017894FF91EF91DF9181
:1004E000CF9108957894E0914201E032D8F7F894E2
:1004F000D9CF8F939F93CF93CFB7CF93DF93EF93C2
:10050000FF93C32F33B13F933C27D7E0CC1F331F5A
:10051000C8F530FF2FC0ED2FF1E0F096B496908132
:100520009A1BED2FF1E0F0967C969083ED2FF1E091
:10053000F096BC9680818823E1F0ED2FF1E0F096F3
:10054000F49680810F921F92989F179407941794A6
:10055000079417940794902D1F900F90ED2FF1E0C2
:10056000F096FC968081980FED2FF1E0F09674964E
:10057000908308C0ED2FF1E0F096B4969A2F915039
:10058000908300C0D15010F63F91FF91EF91DF9121
:10059000CF91CFBFCF919F918F911895CF93CFB728
:1005A000CF9328B91197A1F0C1E02C1A47953C1AB6
:1005B00047954C1A47955C1A47956C1A47957C1AD3
:1005C00047958C1A47959C1A4795B0FD242713C070
:1005D000A0E0B2E0209044013090450140904601F7
:1005E00050904701609048017090490180904A0105
:1005F00090904B012FEFCF91CFBFCF911895CF9314
:10060000CFB7CF93EF93FF93C091C600E091200145
:10061000E03230F4F1E03096C193E050E0932001F5
:10062000FF91EF91CF91CFBFCF911895CF93CFB7D7
:10063000CF93DF93EF93FF93C0914201E091430189
:10064000EC1740F4F1E0B296D191E252D093C6009B
:10065000EC1719F410924201EE27E0934301FF9149
:10066000EF91DF91CF91CFBFCF91189550574D208B
:10067000636F6E7665727465722076302E310D0A66
:1006800000000D0A48202D2048656C700D0A492095
:100690002D2053686F7720696E70757420617272B7
:1006A00061790D0A4F202D2053686F77206F757484
:1006B000707574206172726179200D0A54202D20AA
:1006C00053686F77207472696D20696E666F0D0ACA
:1006D00053786868202D2053657420782028302EA8
:1006E0002E3829206F75747075742050574D207402
:1006F0006F2068680D0A4D786868202D2053657456
:100700002050574D20696E2D6F7574206D61736B8D
:100710000D0A41786868202D205365742050574D8C
:10072000207472696D200D0A55786868202D205359
:1007300065742050574D206D756C7469706C79200C
:040740000D0A00009E
:00000001FF
