:020000020000FC
:1000000019C018951895189518951895189518955C
:10001000189518951895189518951895A7C01895BE
:1000200018951895B4C01895C9C0189518951895C5
:1000300018951895CFEFD2E0DEBFCDBF1124A0E018
:10004000B2E0CFE0D0E0C093C400D093C500C8EDCB
:10005000C093C100C6E0C093C2001092100110927C
:1000600011011092220110922301C0916E00C26012
:10007000C0936E00C4B5C260C4BDC5B5C160C5BD86
:10008000C3E9C7BD14B8CFE0C7B97894CAE0C0933C
:100090002401C0E5C0932501C6E9C0932601CCED3B
:1000A000C0932701C4E6C0932801C8ECC09329017E
:1000B000C0E0C0932A01C8E7C0932B01EEEFF1E046
:1000C00015D02090240130902501409026015090B9
:1000D0002701609028017090290180902A0190905A
:1000E0002B01C3E0C8B9CCE0C8B9FBCFCF93EF93E5
:1000F000FF93C591C03011F011D0FBCFFF91EF916C
:10010000CF910895CF93EF93FF93C191C03011F039
:1001100005D0FBCFFF91EF91CF910895CF93DF935F
:10012000EF93FF93F894E0912201E031C8F4F1E0FD
:100130007296C193E251E0932201C091C000C5FFC5
:100140000FC0CE2FE0912301F1E07296D191E251E0
:10015000D093C600EC1721F41092220110922301D3
:100160007894FF91EF91DF91CF910895CF93CFB71E
:10017000CF931197C1E02C1A3C1A4C1A5C1A6C1AD6
:100180007C1A8C1A9C1ACF91CFBFCF911895CF9320
:10019000CFB7CF93EF93FF93C091C600E0911001CA
:1001A000E03130F4F1E03096C193E050E09310017B
:1001B000FF91EF91CF91CFBFCF911895CF93CFB74C
:1001C000CF93DF93EF93FF93C0912201E09123013E
:1001D000EC1740F4F1E07296D191E251D093C60051
:1001E000EC1721F41092220110922301E0932301D5
:1001F000FF91EF91DF91CF91CFBFCF9118955630FE
:060200002E300D0A000083
:00000001FF
