:100000000C9434000C9451000C9451000C94510049
:100010000C9451000C9451000C9451000C9451001C
:100020000C9451000C9451000C9451000C9451000C
:100030000C9451000C9451000C9451000C945100FC
:100040000C9451000C9451000C9451000C945100EC
:100050000C9451000C9451000C9451000C945100DC
:100060000C9451000C94510011241FBECFEFD8E026
:10007000DEBFCDBF11E0A8E0B1E001C01D92A93004
:10008000B107E1F711E0A0E0B1E0EAECFDE002C069
:1000900005900D92A830B107D9F70E94A3060C94E1
:1000A000E3060C940000CF92DF92EF92FF920F9341
:1000B0001F936B017C0120E030E040E05FE40E9490
:1000C0004C0387FD0EC020E030E040E05FE4C70154
:1000D000B6010E9408020E94AA038B019C013058BD
:1000E00006C0C701B6010E94AA038B019C01B8019A
:1000F000C9011F910F91FF90EF90DF90CF9008956D
:10010000A4E0B0E0E6E8F0E00C94AE067C016A0101
:10011000FC018081823008F44AC1FB019081923059
:1001200008F442C1843079F4943009F040C1F701F9
:100130009181FB018181981709F439C1A0E0EA2E71
:10014000A1E0FA2E34C1943009F42EC1923091F41A
:10015000823009F02CC188E0F701DA0101900D929C
:100160008A95E1F7FB018181F70191818923FA01E9
:1001700081831CC1823009F417C1F7018281938108
:10018000FB01A281B381F7010481158126813781AA
:10019000FB0184809580A680B780FC01EA1BFB0BE5
:1001A000AF01F7FF04C0442755274E1B5F0B4032B9
:1001B00051050CF074C01E161F06B4F5240135015C
:1001C000042E04C076946794579447940A94D2F707
:1001D00049825A826B827C82412C512C3201439499
:1001E00004C0440C551C661C771C4A95D2F741E0AC
:1001F000441A510861087108482059206A207B2060
:10020000812C912C5401839445284628472819F4C1
:10021000812C912C540149805A806B807C808428E9
:100220009528A628B72846C0EF2B09F443C0840FB1
:10023000951F28013901042E04C0769467945794C1
:1002400047940A94D2F749825A826B827C82412C6D
:10025000512C3201439404C0440C551C661C771C7D
:100260004A95D2F741E0441A5108610871084022CA
:1002700051226222732201E010E020E030E04528A4
:100280004628472819F400E010E0980149805A8078
:100290006B807C8004291529262937290BC0A817D3
:1002A000B90724F4812C912C540104C0CD0100E045
:1002B00010E09801F7014181FB015181451709F4D4
:1002C00046C0442349F024013501401A510A620A0C
:1002D000730A9301820104C0081919092A093B090C
:1002E00037FD05C0F6011182938382830CC041E083
:1002F000F601418393838283309520951095019573
:100300001F4F2F4F3F4F04831583268337830EC023
:10031000880F991FAA1FBB1FF60184839583A683AC
:10032000B78382819381019793838283F6018481CD
:100330009581A681B781AC01BD0141505109610988
:1003400071094F3F5F4F6F4F7F4310F30CC0F601B1
:10035000418393838283080D191D2A1D3B1D04834D
:1003600015832683378383E0F6018083448155819A
:100370006681778177FF1AC0DB01CA0181709927F6
:10038000AA27BB277695679557954795842B952B7C
:10039000A62BB72B84839583A683B7838281938111
:1003A00001969383828302C07B0101C07601C7015D
:1003B0002496E0E10C94CA06A0E2B0E0E2EEF1E09F
:1003C0000C94BC066D8F7E8F8F8F98A3298F3A8FE8
:1003D0004B8F5C8FBE016F5E7F4FCE014D960E94AA
:1003E000C304BE01675F7F4FCE0149960E94C304DC
:1003F000AE014F5F5F4FBE01675F7F4FCE014196F9
:100400000E9480000E94F903A096E2E00C94D806B6
:10041000A0E2B0E0EEE0F2E00C94BC066D8F7E8FBF
:100420008F8F98A3298F3A8F4B8F5C8FBE016F5EA1
:100430007F4FCE014D960E94C304BE01675F7F4F80
:10044000CE0149960E94C3048A8591E089278A8754
:10045000AE014F5F5F4FBE01675F7F4FCE01419698
:100460000E9480000E94F903A096E2E00C94D80656
:10047000A0E2B0E0EEE3F2E00C94AE066D8F7E8F6A
:100480008F8F98A3298F3A8F4B8F5C8FBE016F5E41
:100490007F4FCE014D960E94C304BE01675F7F4F20
:1004A000CE0149960E94C3049989923008F412C083
:1004B0008985823008F41AC0943021F4823009F41E
:1004C000B4C008C0843021F4923009F4AEC00EC02C
:1004D000923051F481E02A899A85291301C080E085
:1004E0008A8BCE014196A3C0823051F481E02A89E3
:1004F0009A85291301C080E08A87CE01099697C0AA
:100500008D889E88AF88B88C0D851E852F8538898B
:10051000E0E2F0E080E090E0DC01C12CD12C76013B
:1005200040E050E0BA0180FE18C0400F511F621F2A
:10053000731F8C0D9D1DAE1DBF1D412C512C320112
:100540004394401751076207730718F0412C512C50
:100550003201840D951DA61DB71DCC0CDD1CEE1CB3
:10056000FF1C37FF02C06894C0F8000F111F221F44
:10057000331FB694A794979487943197A1F62B894B
:100580003C89EB85FC852E0F3F1F2E5F3F4F3C8340
:100590002B8321E0EA893A85E31301C020E02A8316
:1005A000EB81FC810CC080FF05C07695679557955F
:1005B00047957068B695A795979587953196B7FD3D
:1005C000F2CF9F010CC0880F991FAA1FBB1F77FD98
:1005D0008160440F551F661F771F21503109009716
:1005E000A105E0E4BE0778F32B833C838C019D01D9
:1005F0000F771127222733270034110521053105F4
:1006000059F487FD09C0452B462B472B29F0805C08
:100610009F4FAF4FBF4F80788D839E83AF83B88746
:1006200083E08983CE01019602C080E091E00E94C0
:10063000F903A096E0E10C94CA06A8E1B0E0E3E279
:10064000F3E00C94BC066D8B7E8B8F8B988F298B7F
:100650003A8B4B8B5C8BBE01675F7F4FCE0145961B
:100660000E94C304BE016F5F7F4FCE0141960E947E
:10067000C3048985823058F08981823040F0BE0100
:100680006F5F7F4FCE0109960E94320501C08FEF48
:100690006896E2E00C94D806A8E1B0E0E2E5F3E069
:1006A0000C94BC066D8B7E8B8F8B988F298B3A8B2D
:1006B0004B8B5C8BBE01675F7F4FCE0145960E94DE
:1006C000C304BE016F5F7F4FCE0141960E94C304F9
:1006D0008985823058F08981823040F0BE016F5F99
:1006E0007F4FCE0109960E94320501C08FEF6896B8
:1006F000E2E00C94D806A8E1B0E0E1E8F3E00C9465
:10070000BC066D8B7E8B8F8B988F298B3A8B4B8B96
:100710005C8BBE01675F7F4FCE0145960E94C3048C
:10072000BE016F5F7F4FCE0141960E94C304898551
:10073000823058F08981823040F0BE016F5F7F4F78
:10074000CE0109960E94320501C081E06896E2E080
:100750000C94D806ACE0B0E0E0EBF3E00C94BA0601
:1007600069877A878B879C87BE016F5F7F4FCE0139
:1007700009960E94C3048981823091F1823080F110
:10078000843041F48A81882331F100E010E020E0D8
:1007900030E829C02B813C8137FD22C02F31310543
:1007A0008CF78EE190E0821B930B0D811E812F81CF
:1007B000388504C036952795179507958A95D2F701
:1007C0008A81882381F030952095109501951F4FDF
:1007D0002F4F3F4F08C00FEF1FEF2FEF3FE703C032
:1007E00000E010E09801B801C9012C96E4E00C94F7
:1007F000D6060F931F93CF93DF93DC0114964D9190
:100800005D916D917C9117971196EC9111978C9158
:10081000823020F460618FEF90E0A6C0843009F44C
:100820009EC0823009F495C04115510561057105DE
:1008300009F492C012962D913C91139722388FEFB4
:1008400038070CF058C0C2E8DFEFC21BD30BCA3127
:10085000D1056CF58A019B010C2E04C036952795B5
:10086000179507950A94D2F781E090E0A0E0B0E0F8
:100870000C2E04C0880F991FAA1FBB1F0A94D2F721
:100880000197A109B10984239523A623B72341E049
:1008900050E060E070E0892B8A2B8B2B19F440E04C
:1008A00050E0BA01402B512B622B732B03C040E068
:1008B00050E0BA01DB01CA018F779927AA27BB272D
:1008C00080349105A105B10539F447FF09C0405CAA
:1008D0005F4F6F4F7F4F04C0415C5F4F6F4F7F4F43
:1008E00081E090E041155105610520E4720748F56B
:1008F00080E090E026C0203831058CF5DB01CA018C
:100900008F779927AA27BB2780349105A105B105C8
:1009100039F447FF09C0405C5F4F6F4F7F4F04C001
:10092000415C5F4F6F4F7F4F77FD04C0C901815815
:100930009F4F07C07695679557954795C901805891
:100940009F4F97E076956795579547959A95D1F77C
:100950000BC080E090E005C080E090E005C08FEF24
:1009600090E040E050E0BA01982F9695E0FB97F9AF
:10097000362F80FB37F9642F752F832FDF91CF91AE
:100980001F910F910895CF92DF92EF92DC01FB014E
:10099000CC901196DC90119712968C9112973FE7AC
:1009A000E32EE8226E2DA60170E0982F991F99275B
:1009B000991F13962C91822F880F892B90E027FB8B
:1009C000222720F92183009729F54115510561055A
:1009D000710511F482E027C082E89FEF9383828340
:1009E00027E0440F551F661F771F2A95D1F783E034
:1009F000808309C0440F551F661F771F8281938132
:100A000001979383828341155105610580E478073E
:100A100088F320C08F3F910579F441155105610598
:100A2000710519F484E0808319C0E4FE03C081E0FD
:100A3000808310C010820EC08F57910993838283E8
:100A400083E0808387E0440F551F661F771F8A95D8
:100A5000D1F770644483558366837783EF90DF908A
:100A6000CF900895CF93FC01DB019081923008F480
:100A700052C08C91823008F44EC0943071F48430AE
:100A800039F411962C9130E08181281B310948C03E
:100A90008181882309F43FC03BC0843029F411963A
:100AA0008C91811138C034C0923019F48230B9F77A
:100AB00035C0823069F3C18111968C911197C813AA
:100AC0001DC02281338112968D919C9113978217BC
:100AD00093070CF413C0281739070CF417C044818E
:100AE00055816681778114968D919D910D90BC9171
:100AF000A02D84179507A607B70718F4C11108C0E1
:100B00000AC0481759076A077B0740F4C11103C0A0
:100B10002FEF3FEF05C021E030E002C020E030E0E1
:100B2000C901CF910895CF93DF93CDB7DEB784E2AB
:100B300090E024E230E0F90120812062FC01208372
:100B400084E290E024E230E0F90120812160FC01A0
:100B500020838AE290E02AE230E0F90120812B7FB5
:100B6000FC0120838BE290E02BE230E0F901208150
:100B70002460FC01208310920801DF91CF91089539
:100B8000CF93DF9300D0CDB7DEB789E290E0FC01D0
:100B90008081882F90E084709927009751F480E03D
:100BA0009CE39A83898389819A8100008F939F9324
:100BB00008950F900F90DF91CF9108950F931F9399
:100BC000CF93DF93CDB7DEB761970FB6F894DEBF52
:100BD0000FBECDBF19822BC00E94C00590910801A5
:100BE0008981890F8F738A8388E08B838B819A81B7
:100BF000F8940024039488E005B8991F000028F0B9
:100C000015B800000000000005C000000000000052
:100C10000000000015B80000000000000000000007
:100C20000000815049F7789489818F5F8983898199
:100C3000823A08F4D1CF80E090E0A0E2B1E48C8366
:100C40009D83AE83BF8320E030E04AE755E46C81AA
:100C50007D818E819F810E943802DC01CB018887D3
:100C60009987AA87BB8720E030E040E85FE368858A
:100C700079858A859B850E947B0388232CF481E0FB
:100C800090E09D878C8742C020E03FEF4FE757E41C
:100C9000688579858A859B850E941D03181664F5F1
:100CA00020E030E040E251E46C817D818E819F81C3
:100CB0000E943802DC01CB01BC01CD010E9453002F
:100CC000DC01CB019D878C8712C080E991E09F8772
:100CD0008E878E859F858C01C8010197F1F78C0165
:100CE0001F870E878C859D8501979D878C878C85B6
:100CF0009D85009751F717C0688579858A859B8502
:100D00000E945300DC01CB019D878C878C859D85DB
:100D1000998B888B888999898C01C8010197F1F793
:100D20008C01198B088B809108018F5F80930801DB
:100D300061960FB6F894DEBF0FBECDBFDF91CF91A5
:100D40001F910F910895CF93DF93CDB7DEB70E9427
:100D500093050E94DE05FDCF2F923F924F925F9246
:100D60006F927F928F929F92AF92BF92CF92DF92BB
:100D7000EF92FF920F931F93CF93DF93CDB7DEB720
:100D8000CA1BDB0B0FB6F894DEBF0FBECDBF0994B4
:100D90002A88398848885F846E847D848C849B840B
:100DA000AA84B984C884DF80EE80FD800C811B8119
:100DB000AA81B981CE0FD11D0FB6F894DEBF0FBE48
:0A0DC000CDBFED010895F894FFCFB8
:080DCA00000000000000000021
:00000001FF
