:1000000019C028C027C026C025C024C023C022C0D4
:1000100021C020C01FC01EC01DC01CC02DC01AC0E2
:1000200019C018C017C016C015C014C013C012C024
:1000300011C010C011241FBECFEFD2E0DEBFCDBF74
:1000400011E0A0E0B1E001C01D92A230B107E1F7DC
:1000500044D04DC0D5CF1092010110920001EEE6C0
:10006000F0E080818260808384B5826084BD84E01A
:1000700085BD8CE787BD08951F920F920FB60F9232
:1000800011248F939F93F894809100019091010126
:100090000196909301018093000178949F918F9134
:1000A0000F900FBE0F901F90189520910001309176
:1000B0000101280F391F80910001909101018217E1
:1000C0009307C8F308953D9A209A509A56985898E5
:1000D000289A459AC0DF789408951F93F4DF10E2C0
:1000E00084EF91E0E2DF88B1812788B9F9CFF894F5
:0200F000FFCF40
:00000001FF
