:020000020000FC
:0200000019C025
:10003400CFEFD8E0DEBFCDBF11240BEC009300015D
:1000440001E004B920E031E00091000118E035B985
:1000540007950000000000000000000058F025B9DA
:10006400000000000000000000000000000000008C
:1000740000000BC0000000000000000000000000B1
:100084000000000000000000000025B9000000008E
:10009400000000000000000000000000000000005C
:1000A400000000000000000000000000115079F67C
:0200B400CBCFB0
:00000001FF
