:100000000C942A000C9447000C9447000C94470071
:100010000C9447000C9447000C9447000C94470044
:100020000C9447000C9447000C9447000C94340146
:100030000C9447000C9467010C9447000C94470003
:100040000C9447000C9447000C9447000C94470014
:100050000C94470011241FBECFE5D4E0DEBFCDBF16
:1000600010E0A0E6B0E0ECE4F3E002C005900D92F1
:10007000A037B107D9F710E0A0E7B0E001C01D92AA
:10008000A43BB107E1F70E940B010C94A4010C946E
:100090000000DF93CF93CDB7DEB789E290E02CE08C
:1000A000FC01208380E490E0FC0110828BE290E070
:1000B000FC0110828AE290E028EDFC01208380E4BC
:1000C00090E026E8FC0120831092B300109290008B
:1000D000109291001092B200CF91DF910895DF93BA
:1000E000CF930F92CDB7DEB78983F89480919100BA
:1000F000803270F480919100882F90E080599F4F5A
:100100002981FC012083809191008F5F8093910071
:1001100078948BE290E0FC018081882F90E08072DF
:1001200090700097D9F08CE290E02091B200222FDD
:1001300030E020593F4FF9012081FC01208380915C
:10014000B2008F5F8093B2009091B20080919100D5
:10015000981720F01092B200109291000F90CF915A
:10016000DF910895DF93CF93CDB7DEB72091B30031
:100170009091900081E0921708F080E0CF91DF919C
:100180000895DF93CF930F92CDB7DEB77894000038
:100190009091B300809190008917D0F7F8948091E6
:1001A0009000882F90E08E569F4FFC0180818983BC
:1001B000809190008F5F809390009091900080914B
:1001C000B300981720F0109290001092B30078942A
:1001D00089810F90CF91DF910895DF93CF9300D065
:1001E000CDB7DEB79A8389830BC089819A81FC01E0
:1001F00080810E946F0089819A8101969A83898308
:1002000089819A81FC018081882379F70F900F9072
:10021000CF91DF910895DF93CF930F92CDB7DEB7E3
:100220000E94490080E690E00E94ED0081E390E0AA
:1002300020E2FC01208301C00000F89482E390E0FA
:1002400022E330E0F901308120E22327FC01208302
:1002500078940E94B200882379F30E94C1008983B8
:1002600089810E946F00E9CF1F920F920FB60F9203
:1002700011242F938F939F93EF93FF93DF93CF934B
:100280000F92CDB7DEB78CE290E0FC0180818983CC
:100290008091B300803270F48091B300882F90E099
:1002A0008E569F4F2981FC0120838091B3008F5F80
:1002B0008093B3000F90CF91DF91FF91EF919F91C9
:1002C0008F912F910F900FBE0F901F9018951F9236
:1002D0000F920FB60F9211242F933F938F939F93FA
:1002E000EF93FF93DF93CF93CDB7DEB79091B2003A
:1002F000809191009817D8F48CE290E02091B200A0
:10030000222F30E020593F4FF9012081FC0120834A
:100310008091B2008F5F8093B2009091B200809183
:100320009100981720F01092B20010929100CF9196
:10033000DF91FF91EF919F918F913F912F910F90BE
:0C0340000FBE0F901F901895F894FFCF8F
:10034C0048656C6C6F20776F726C64210A0D00002D
:00000001FF
