:100000000C942A000C9447000C9447000C94470071
:100010000C9447000C9447000C9447000C94470044
:100020000C9447000C9447000C9447000C945A0021
:100030000C9447000C9479000C9447000C944700F2
:100040000C9447000C9447000C9447000C94470014
:100050000C94470011241FBECFE5D4E0DEBFCDBF16
:1000600010E0A0E6B0E0E4E2F4E002C005900D92FA
:10007000A637B107D9F710E0A6E7B0E001C01D929E
:10008000AF3BB107E1F70E94F2010C9410020C940F
:10009000000089E189B910BC1BB888ED8AB986E8EF
:1000A00080BD1092BA0010929700109298001092A2
:1000B000B90008951F920F920FB60F9211248F93DB
:1000C0009F93EF93FF939CB18091BA00803240F4EC
:1000D000E82FF0E0E756FF4F90838F5F8093BA00E0
:1000E000FF91EF919F918F910F900FBE0F901F90F6
:1000F00018951F920F920FB60F9211242F938F9382
:100100009F93EF93FF938091B90090919800891786
:1001100078F4E82FF0E0E958FF4F20812CB98F5F89
:100120008093B900891720F01092B90010929800BE
:10013000FF91EF919F918F912F910F900FBE0F9094
:100140001F901895F89490919800903240F4E92F00
:10015000F0E0E958FF4F80839F5F90939800789478
:100160005D9B13C08091B900E82FF0E0E958FF4F84
:1001700090819CB98F5F8093B90090919800891706
:1001800020F01092B90010929800089581E020911B
:10019000BA0090919700921708F080E00895789443
:1001A0000E94C6008823A9F0F89490919700E92F47
:1001B000F0E0E756FF4F80819F5F9093970020917A
:1001C000BA00921720F0109297001092BA0078941B
:1001D0000895FFCFEF92FF92CF93DF93E82EE701D0
:1001E0007E01F92EE70102C00E94A20089918823B6
:1001F000D9F7DF91CF91FF90EF9008958F708A30FB
:1002000010F4805D0895895C08958A3310F480535A
:100210000895873410F487530895873610F487556E
:10022000089580E008951F93982F9F70182F1295BE
:100230001F709A3010F480E301C087E3890F0E9499
:10024000A2001A3010F480E301C087E3810F0E94FE
:10025000A2001F910895109276001092BB00109298
:10026000BC001092BD001092BE0008950F931F9322
:100270008091BB00882309F489C0893421F08F3430
:1002800009F080C03EC08091BC00863451F18734B3
:1002900070F4833401F1843428F48134C1F0823461
:1002A00071F517C08434C9F0853449F518C0893414
:1002B000F1F08A3428F48734B1F0883401F515C0A0
:1002C0008B34C9F08B34A8F08C34C9F416C019B340
:1002D0004AC016B348C013B346C010B344C01AB3E3
:1002E00042C017B340C014B33EC011B33CC01BB3EF
:1002F0003AC018B338C015B336C012B334C010E0DA
:1003000032C08091BE000E940501082F8091BD007F
:100310000E940501182F1295107F100F8091BC00CC
:100320008434C1F0853438F4823481F0833480F42D
:100330008134C9F409C0863489F0863468F0873482
:1003400079F0883481F40EC01BBB0DC018BB0BC004
:1003500015BB09C012BB07C01ABB05C017BB03C041
:1003600014BB01C011BB812F82958F700E94FE00CB
:100370000E94A200812F0E94FE000E94A20080E63F
:1003800090E002C083E690E00E94EA001F910F9186
:1003900008958A3011F08D3049F4809176008823D9
:1003A00011F00E9436010E942B0108959091760071
:1003B0009430B8F4282F21562A3110F4805209C005
:1003C000282F21542A3118F02F5E2A3050F4882328
:1003D00041F0E92FF0E0E554FF4F80839F5F909359
:1003E000760008950F931F930E9449000E942B01ED
:1003F0008CE690E00E94EA008D9A00E2F89482B3C5
:10040000802782BB78940E94C6008823B9F30E949B
:10041000CF00182F0E94A200812F0E94C901EECFA9
:04042000F894FFCF7E
:100424000A0D004552523A55430A0D005344302EEA
:0604340030310A0D00004A
:00000001FF
