:1000000031C043C042C041C040C03FC03EC03DC0FF
:100010003CC03BC03AC039C038C037C036C035C01C
:1000200034C033C032C031C030C02FC02EC02DC04C
:100030002CC02BC076C07FC088C091C09AC0A3C01E
:10004000ACC0B5C0BEC0C7C0D0C0D9C007C110C108
:1000500019C122C12BC134C13DC146C14FC158C1D4
:1000600061C16AC111241FBECFEFD2E0DEBFCDBF98
:1000700011E0A0E0B1E0EEE3F6E002C005900D92E1
:10008000A430B107D9F787D1D8C2BACFDF93CF93C5
:10009000CDB7DEB784E290E024E230E0F9012081C0
:1000A0002460FC01208385E290E025E230E0F90144
:1000B00020812460FC0120838AE290E02AE230E083
:1000C000F90120812F61FC01208387E290E027E283
:1000D00030E0F90120812F67FC012083CF91DF916F
:1000E0000895DF93CF9300D0CDB7DEB79A8389838D
:1000F00089819A812CE030E0B90198D1AA2797FD37
:10010000A095BA2F40E050E02BE030E0841B950B27
:100110002817390708F47DC0865E9F4F8F939F9301
:1001200008958BE290E02BE230E0F901208120611C
:10013000FC0120836EC08BE290E02BE230E0F901FD
:1001400020812860FC01208364C08BE290E02BE2D8
:1001500030E0F90120812460FC0120835AC08BE249
:1001600090E02BE230E0F90120812260FC01208345
:1001700050C08BE290E02BE230E0F9012081216059
:10018000FC01208346C088E290E028E230E0F901DB
:1001900020812064FC0120833CC088E290E028E2BA
:1001A00030E0F90120812062FC01208332C088E226
:1001B00090E028E230E0F90120812061FC012083F9
:1001C00028C088E290E028E230E0F9012081286030
:1001D000FC0120831EC088E290E028E230E0F901B3
:1001E00020812460FC01208314C088E290E028E292
:1001F00030E0F90120812260FC0120830AC088E2FE
:1002000090E028E230E0F90120812160FC012083A8
:1002100000000F900F90CF91DF910895DF93CF935F
:1002200000D0CDB7DEB79A83898389819A812CE08B
:1002300030E0B901FBD0AA2797FDA095BA2F40E086
:1002400050E02BE030E0841B950B2817390708F4A9
:100250007DC08A5D9F4F8F939F9308958BE290E0BE
:100260002BE230E0F90120812F7EFC0120836EC05B
:100270008BE290E02BE230E0F9012081277FFC0146
:10028000208364C08BE290E02BE230E0F901208112
:100290002B7FFC0120835AC08BE290E02BE230E000
:1002A000F90120812D7FFC01208350C08BE290E07A
:1002B0002BE230E0F90120812E7FFC01208346C033
:1002C00088E290E028E230E0F90120812F7BFC01F8
:1002D00020833CC088E290E028E230E0F9012081F0
:1002E0002F7DFC01208332C088E290E028E230E0DC
:1002F000F90120812F7EFC01208328C088E290E054
:1003000028E230E0F9012081277FFC0120831EC014
:1003100088E290E028E230E0F90120812B7FFC01A7
:10032000208314C088E290E028E230E0F9012081C7
:100330002D7FFC0120830AC088E290E028E230E0B3
:10034000F90120812E7FFC01208300000F900F9087
:10035000CF91DF910895DF93CF93CDB7DEB78BE2D6
:1003600090E0FC01108288E290E0FC0110828AE2B9
:1003700090E0FC01108287E290E0FC01108285E2AF
:1003800090E025E230E0F90120812B7FFC01208301
:10039000CF91DF910895DF93CF93CDB7DEB7289744
:1003A0000FB6F894DEBF0FBECDBF70DE18861F8279
:1003B0001A8219822AC09FD098878F838F8198854F
:1003C00090DE1C821B8205C08B819C8101969C83E0
:1003D0008B838B819C8127E280319207A8F38F81E8
:1003E00098851CDF1E821D8205C08D819E8101962D
:1003F0009E838D838D819E812CE980349207A8F3A2
:1004000089819A8101969A83898389819A818F3F14
:1004100091058CF2A0DF80E090E028960FB6F8946A
:10042000DEBF0FBECDBFCF91DF91089597FB092EA0
:1004300007260AD077FD04D00CD006D000201AF48D
:10044000709561957F4F0895F6F7909581959F4F30
:100450000895AA1BBB1B51E107C0AA1FBB1FA6170B
:10046000B70710F0A61BB70B881F991F5A95A9F75D
:1004700080959095BC01CD010895A0E0B0E0E2E444
:10048000F2E08AC0EC01688179818A819B816115E3
:1004900071058105910521F464E279ED8BE597E022
:1004A0002DE133EF41E050E054D079018A0127EA91
:1004B00031E440E050E02ED05B016C01C801B7018F
:1004C0002CEE34EF4FEF5FEF25D06A0D7B1D8C1DB6
:1004D0009D1D97FF04C06150704080409048688324
:1004E00079838A839B837F77CB01CDB7DEB7EAE040
:1004F0006FC0C3DF089580E091E0BFDF0895A0E002
:10050000B0E08093000190930101A0930201B093A9
:1005100003010895629FD001739FF001829FE00D57
:10052000F11D649FE00DF11D929FF00D839FF00D72
:10053000749FF00D659FF00D9927729FB00DE11D1E
:10054000F91F639FB00DE11DF91FBD01CF011124FB
:10055000089597FB092E05260ED057FD04D04BD0E9
:100560000AD0001C38F450954095309521953F4FA6
:100570004F4F5F4F0895F6F7909580957095619570
:100580007F4F8F4F9F4F08952F923F924F925F92D0
:100590006F927F928F929F92AF92BF92CF92DF9293
:1005A000EF92FF920F931F93CF93DF93CDB7DEB7F8
:1005B000CA1BDB0B0FB6F894DEBF0FBECDBF09948C
:1005C0002A88398848885F846E847D848C849B84E3
:1005D000AA84B984C884DF80EE80FD800C811B81F1
:1005E000AA81B981CE0FD11D0FB6F894DEBF0FBE20
:1005F000CDBFED010895A1E21A2EAA1BBB1BFD0180
:100600000DC0AA1FBB1FEE1FFF1FA217B307E407F1
:10061000F50720F0A21BB30BE40BF50B661F771F49
:10062000881F991F1A9469F7609570958095909529
:0E0630009B01AC01BD01CF010895F894FFCFEE
:04063E0001000000B7
:00000001FF
