:100000000C942A000C9447000C9447000C94B901FE
:100010000C9447000C9447000C9447000C94470044
:100020000C9447000C9447000C9447000C945A0021
:100030000C9447000C9479000C9447000C944700F2
:100040000C9447000C9447000C9447000C94470014
:100050000C94470011241FBECFE5D4E0DEBFCDBF16
:1000600010E0A0E6B0E0ECE1F4E002C005900D92F3
:10007000A236B107D9F710E0A2E6B0E001C01D92A8
:10008000AF3AB107E1F70E948D010C940C020C9479
:1000900000008EE289B910BC1BB888ED8AB986E8E9
:1000A00080BD1092AC001092890010928A001092CC
:1000B000AB0008951F920F920FB60F9211248F93E9
:1000C0009F93EF93FF939CB18091AC00803240F4FA
:1000D000E82FF0E0E557FF4F90838F5F8093AC00EF
:1000E000FF91EF919F918F910F900FBE0F901F90F6
:1000F00018951F920F920FB60F9211242F938F9382
:100100009F93EF93FF938091AB0090918A008917A2
:1001100078F4E82FF0E0E759FF4F20812CB98F5F8A
:100120008093AB00891720F01092AB0010928A00E8
:10013000FF91EF919F918F912F910F900FBE0F9094
:100140001F901895F89490918A00903240F4E92F0E
:10015000F0E0E759FF4F80839F5F90938A00789487
:100160005D9B13C08091AB00E82FF0E0E759FF4F93
:1001700090819CB98F5F8093AB0090918A00891722
:1001800020F01092AB0010928A00089581E0209137
:10019000AC0090918900921708F080E0089578945F
:1001A0000E94C6008823A9F0F89490918900E92F55
:1001B000F0E0E557FF4F80819F5F90938900209189
:1001C000AC00921720F0109289001092AC00789445
:1001D0000895FFCFEF92FF92CF93DF93E82EE701D0
:1001E0007E01F92EE70102C00E94A20089918823B6
:1001F000D9F7DF91CF91FF90EF9008958F708A30FB
:1002000010F4805D0895895C08958A3310F480535A
:100210000895873410F487530895873610F487556E
:10022000089580E008951F93982F9F70182F1295BE
:100230001F709A3010F480E301C087E3890F0E9499
:10024000A2001A3010F480E301C087E3810F0E94FE
:10025000A2001F91089595B5987F982B95BD08959C
:1002600089B7806889BF81E00E942B0185B58F7BAB
:1002700085BD85B5886085BD85B58F7E85BD85B515
:100280008F7D85BD789487EB83BD089581B38066AB
:1002900081BBD09808952091600030E0281739077D
:1002A00071F1F8948130910569F0823091051CF468
:1002B000009761F021C08230910541F083309105B3
:1002C000D9F407C021B3206621BB16C021B32F7912
:1002D000FBCF21B32F7921BB29B32170209362007A
:1002E00010926400109263001092660010926500F4
:1002F00010926800109267008093600078940895CF
:100300000E9449000E9446010E943001969A9598E9
:100310001092AE001092AD0008950E94800180916D
:10032000AD009091AE0022E18539920718F080E08F
:1003300090E01CC08091AD009091AE008933910592
:1003400018F083E090E012C08091AD009091AE0073
:100350008F32910518F082E090E008C08091AD00E6
:100360009091AE000097D9F281E090E00E944B019D
:10037000D6CF1F920F920FB60F9211242F933F9357
:100380008F939F9380916000813019F0833091F5B5
:1003900005C082B390E6892782BB2CC029B32170A7
:1003A000309162008091630090916400231741F0C6
:1003B00020936200019690936400809363001AC0BA
:1003C0008731910568F41092640010926300809167
:1003D000AD009091AE0090936600809365000AC0D6
:1003E000109260008091AD009091AE0090936800F3
:1003F000809367008091AD009091AE00019690933C
:10040000AE008093AD009F918F913F912F910F90FF
:0C0410000FBE0F901F901895F894FFCFBE
:02041C000100DD
:00000001FF
