:1000000012C021C020C04BC01EC01DC01CC01BC0E0
:100010001AC019C018C017C016C015C014C013C02C
:1000200012C011C010C011241FBECFE5D4E0DEBF46
:10003000CDBF10E0A0E6B0E001C01D92A236B1072E
:10004000E1F72BD060C0DCCF80EF81BB089595B580
:10005000987F982B95BD089589B7806889BF81E006
:10006000F6DF85B58F7B85BD85B5886085BD85B597
:100070008F7E85BD85B58F7D85BD789483E683BDF4
:10008000089580EF81BBE8DF959A9698949A9798A7
:1000900010926100109260000895F3DFFFCF1F926D
:1000A0000F920FB60F9211242F938F939F9382B3C9
:1000B00090E9892782BB809160009091610088322D
:1000C000910520F482B390E6892782BB809160007D
:1000D00090916100019690936100809360008091FF
:1000E00060009091610021E08139920720F0109228
:1000F0006100109260009F918F912F910F900FBE21
:0A0100000F901F901895F894FFCFA0
:00000001FF
