:100000000C9462000C948A000C948A000C94C9052C
:100010000C948A000C9409060C948A000C948A00B3
:100020000C948A000C948A000C948A000C948A0028
:100030000C948A000C948A000C948A000C948A0018
:100040000C948E150C948A000C949A170C94A203AD
:100050000C948A000C948A000C948A000C948A00F8
:100060000C948A000C948A000000000024002700F1
:100070002A0000000000250028002B0000000000DE
:1000800023002600290004040404040404040202DA
:100090000202020203030303030301020408102007
:1000A0004080010204081020010204081020000012
:1000B0000007000201000003040600000000000029
:1000C0000000C01811241FBECFEFD8E0DEBFCDBFA7
:1000D00012E0A0E0B1E0E2EDF7E302C005900D927E
:1000E000A43FB107D9F715E0A4EFB2E001C01D921B
:1000F000AA3EB107E1F710E0C4ECD0E004C02297BB
:10010000FE010E94AC1BC23CD107C9F70E94FA183D
:100110000C94E71B0C940000FB01DC0101900D9294
:100120000020E1F70895A0E0B0E0E9E9F0E00C94E8
:10013000BA1B7C01EB018A01690109C0CE0121963D
:10014000F6010995F70181937F01015010400115D7
:100150001105A1F7CDB7DEB7E8E00C94D61BA0E0FF
:10016000B0E0E5EBF0E00C94BA1BEC017B018A01F6
:10017000690109C0CE012196F70161917F01F60165
:1001800009950150104001151105A1F7CDB7DEB753
:10019000E8E00C94D61B9C01F999FECF32BD21BD3D
:1001A000F89A80B508959C01F999FECF1FBA32BD27
:1001B00021BD60BD0FB6F894FA9AF99A0FBE089562
:1001C000DF92EF92FF920F931F93DF93CF93CDB700
:1001D000DEB728970FB6F894DEBF0FBECDBF698398
:1001E0007A838B839C832D833E834F8358870E9421
:1001F0009D197B018C0120E030E048EC52E40E9424
:10020000C41A0E94051A9B0177FF03C030952195FF
:100210003F4FDD248C8187FF02C0DD24D394243638
:1002200031055CF52B303105D4F0C801B70129E266
:100230003CE54FE85EE30E94C41AA80197010E94C2
:10024000C41A20E030E040E85FE30E9439199B01C6
:10025000AC01C801B7010E949D197B018C01888502
:1002600087FF33C0DD2039F5C801B7012BED3FE032
:1002700049E450E40E94391926C0C801B701A80119
:1002800097010E94C41A29E23CE54FE85EE30E9410
:1002900039199B01AC01C801B7010E949D199B014E
:1002A000AC016BED7FE089EC9FE30E9438197B0184
:1002B0008C01DD2051F0C801B7012BED3FE049E48E
:1002C00050E40E9438197B018C01C801B7012CE46D
:1002D0003DE34FE054E40E94C41A0E94051ACB018A
:1002E00028960FB6F894DEBF0FBECDBFCF91DF9139
:1002F0001F910F91FF90EF90DF9008952F923F9202
:100300004F925F926F927F928F929F92AF92BF9225
:10031000CF92DF92EF92FF920F931F93DF93CF93D1
:1003200000D000D0CDB7DEB79A8389837C836B83FE
:10033000FC01A084B184C284D384248035804680AB
:1003400057806080718082809380C401B301EB810B
:10035000FC8120813181428153810E94C41A7B013A
:100360008C01C201B101EB81FC8124813581468180
:1003700057810E94C41A9B01AC01C801B7010E94B9
:1003800039199B01AC01C601B5010E943819E981F8
:10039000FA816087718782879387C601B501EB81F7
:1003A000FC8120813181428153810E94C41A7B01EA
:1003B0008C01C201B101EB81FC8120853185428530
:1003C00053850E94C41A9B01AC01C801B7010E9469
:1003D00038199B01AC01C401B3010E943919E981AC
:1003E000FA816083718382839383C601B501EB81B7
:1003F000FC8124813581468157810E94C41A7B018A
:100400008C01C401B301EB81FC81208531854285DB
:1004100053850E94C41A9B01AC01C801B7010E9418
:1004200039199B01AC01C201B1010E943919E9815E
:10043000FA8164837583868397830F900F900F9062
:100440000F90CF91DF911F910F91FF90EF90DF9070
:10045000CF90BF90AF909F908F907F906F905F9064
:100460004F903F902F900895FC018081860F8083EC
:1004700008950F931F93FC018081689F80011124D0
:10048000C80164E670E00E94461B9B01F62FF05DF8
:10049000C8016AE070E00E94461BE62FE05DC901DA
:1004A00073E0220F331F7A95E1F7880F991F280F09
:1004B000391FE21BC8016AE070E00E94461B982FBA
:1004C000905D413039F04130C8F0423059F043304E
:1004D000D9F40EC0F093BB04E093BC048EE2809389
:1004E000BD0410C0F093BB048EE28093BC0408C02E
:1004F00080E38093BA048EE28093BB04F093BC0443
:10050000E093BD049093BE041F910F910895209134
:100510009A0430919B048091A0049091A10497FFCC
:1005200003C0909581959F4FECE9FFEFE81BF90B15
:100530002E173F073CF0FC01EC59FF4F2E173F07E9
:100540000CF4F901F0939B04E0939A048091A204C7
:100550009091A30440919604509197049C01241B10
:10056000350B6091980470919904D901A60FB71FBB
:10057000AE1BBF0BB0931703A0931603261B370BBC
:100580002E0F3F1F3093190320931803480F591F54
:10059000CA01860F971F8E0F9F1F90931B03809396
:1005A0001A03461B570B4E1B5F0B50931D034093C2
:1005B0001C032A173B070CF49D0180911A039091AC
:1005C0001B03281739070CF49C01241735070CF47A
:1005D0009A0140912C0350912D03A091A404E6E1CF
:1005E000F3E068EE73E087E02B33380744F0808156
:1005F0009181865C984F821B930B918380838081CD
:100600009181B4E08E379B071CF48EE794E006C01E
:10061000B7E08B339B0714F08AE397E091838083E4
:1006200084E04C34580714F471836083AA2311F4D6
:10063000718360833296B3E0EE31FB07A1F6089533
:10064000AF92BF92CF92DF92EF92FF920F931F93E0
:10065000CF93DF93809132048F5F8093320443E322
:10066000A42E44E0B42E03E414E0C6E2D3E0EE246A
:10067000FF24C82EDD2483E0C822DD242FB7F894A0
:10068000F701ED5BFD4FE081F0E0EE0FFF1FEA5F49
:10069000FD4F808191812FBF7894F701EE0FFF1FEE
:1006A000EE0FFF1FEC0DFD1DEE0FFF1FED5BFB4F6F
:1006B00091838083F8018081918122813381820F2F
:1006C000931F24813581820F931F26813781820FEA
:1006D000931F029664E070E00E945A1B9B01F50193
:1006E000718360838881998103976817790734F44F
:1006F0002E5F3F4F39832883225030408881998173
:1007000003968217930724F42250304039832883BC
:100710000894E11CF11C82E090E0A80EB91E085F6D
:100720001F4F229698E0E916F10409F0A7CFDF9158
:10073000CF911F910F91FF90EF90DF90CF90BF90DE
:10074000AF9008951F920F920FB60F9211248F93BE
:100750009F93EF93FF9390916D03E92FF0E0E2599F
:10076000FC4F80818093C6009F5F90936D038091C2
:10077000FD02981739F48091C1008F7D8093C100EC
:100780001092FC02FF91EF919F918F910F900FBEFD
:100790000F901F901895AF92BF92CF92DF92EF9279
:1007A000FF920F931F93A82EB42E00E0C62EDD24D7
:1007B000EE24FF240FC01D9AC701B6010E94FC154C
:1007C0001F5F1A15C0F36CE370E080E090E00E94B8
:1007D000FC150F5F0B1510F410E0F3CF1F910F9174
:1007E000FF90EF90DF90CF90BF90AF900895EF9281
:1007F000FF920F931F93CF93DF93809114049091F6
:100800001504892B09F455C0CCE1D4E052EFE52E54
:1008100053E0F52E06E114E0609114047091150484
:1008200081E06039780721F4188219821A821B82CC
:10083000F701808191819C01442737FD4095542F19
:1008400088819981AA81BB81280F391F4A1F5B1FAC
:10085000288339834A835B8311821082F8011182D5
:1008600010826130710581F4CA01B90120E931E0DB
:1008700040E050E00E948F1BF801318320838AE022
:100880006FE041E00E94CB03249682E090E0E80E06
:10089000F91E0E5F1F4F94E0C832D90709F0BCCF94
:1008A00080911404909115040197909315048093FE
:1008B0001404E2EFF3E0C6E1D4E0A8E2B4E0208162
:1008C000318188819981281B390B4D915C91119759
:1008D000CA0180529340281739073CF0CA01805E54
:1008E0009C4F281739070CF4C901819391938D937C
:1008F0009D93229683E0E83FF80709F7DF91CF91B7
:100900001F910F91FF90EF9008952FEF30E019C0E5
:1009100021503040B1F41092BC000E94D615609373
:100920002E0470932F0480933004909331048091AF
:10093000680390916903019690936903809368031B
:1009400008958091BC0087FFE3CF08950F931F9314
:100950000CEB10E084E8F80180830E94850480910C
:10096000BB0094E9F80190831F910F91089584ECE6
:100970008093BC000E9485048091BB000895809301
:10098000BB0084E88093BC000E9485040895FF9218
:100990000F931F93F82E0CEB10E084EAF80180838C
:1009A0000E948504F092BB0084E8F80180830E94D5
:1009B00085041F910F91FF9008950F931F93162F99
:1009C000042F0E94C704812F0E94BF04802F0E9421
:1009D000BF0484E98093BC001F910F91089564E6E1
:1009E00070E080E090E00E94FC1580ED6EE340E84E
:1009F0000E94DD0465E070E080E090E00E94FC155C
:100A000080ED66E148E10E94DD0465E070E080E091
:100A100090E00E94FC1580ED6EE343E00E94DD044F
:100A200064E670E080E090E00E94FC1508956AE0C2
:100A300070E080E090E00E94FC158AE36DE248E0FF
:100A40000E94DD048AE361E34BE00E94DD048AE357
:100A50006CE24BE00E94DD0480E091E09093EF03B4
:100A60008093EE03089568EC70E080E090E00E94CF
:100A7000FC152C9A64E670E080E090E00E94FC1582
:100A8000449A459A1092B9008CE08093B80084E0B3
:100A90008093BC0064E670E080E090E00E94FC156A
:100AA0000E94EF040E9417056091EE037091EF031E
:100AB00080E090E00E94361A25E733E948ED5EE3D6
:100AC0000E94C41A0E94051A7093F1036093F00308
:100AD00008950F931F93CF93DF93082F162F0E9433
:100AE000C704812F0E94BF04802F8F5F0E94C7041C
:100AF000C6EFD2E00E94B704899382E0CB3FD807CB
:100B0000C9F70E94A6048883DF91CF911F910F91AE
:100B100008958CE08093B80080ED6DE10E94690536
:100B20009091F80280E02091F90230E0822B932B23
:100B300064E070E00E945A1B7093F3036093F20329
:100B40009091F60280E02091F70230E0822B932B07
:100B500064E070E00E945A1B709561957F4F70931E
:100B6000F5036093F4039091FA0280E02091FB0278
:100B700030E0822B932B64E070E00E945A1B70954A
:100B800061957F4F7093F7036093F6030E94F7031C
:100B900008951F920F920FB60F9211241F932F9357
:100BA0003F934F935F936F937F938F939F93AF93F5
:100BB000BF93EF93FF9313B178940E94D6159B01D6
:100BC00010FD11C08091830490918404281B390B7F
:100BD000C901855893408351954048F430930702EA
:100BE0002093060204C07093840460938304FF91F1
:100BF000EF91BF91AF919F918F917F916F915F9195
:100C00004F913F912F911F910F900FBE0F901F900A
:100C100018951F920F920FB60F9211240F931F93E6
:100C20002F933F934F935F936F937F938F939F93F4
:100C3000AF93BF93EF93FF9319B100918504012700
:100C40007894109385040E94D615AB01E02FF0E054
:100C5000DF01A470B07002FF18C012FD12C08091B5
:100C60008A0490918B049A01281B390BC90185587D
:100C700093408351954048F430930B0220930A022D
:100C800004C070938B0460938A04E4FF18C014FDC1
:100C900012C080918E0490918F049A01281B390B09
:100CA000C901855893408351954048F430930F0211
:100CB00020930E0204C050938F0440938E04E5FFEE
:100CC00018C015FD12C080919004909191049A0172
:100CD000281B390BC901855893408351954048F42E
:100CE000309311022093100204C05093910440935A
:100CF0009004E6FF18C016FD12C0809192049091F6
:100D000093049A01281B390BC901855893408351DC
:100D1000954048F4309313022093120204C050937C
:100D200093044093920407FF18C017FD12C08091EE
:100D30009404909195049A01281B390BC901855898
:100D400093408351954048F4309315022093140248
:100D500004C05093950440939404AB2BA1F0809170
:100D6000F4029091F502459754F08091F40290912D
:100D7000F50244979093F5028093F40204C0109218
:100D8000F5021092F402FF91EF91BF91AF919F9104
:100D90008F917F916F915F914F913F912F911F9113
:100DA0000F910F900FBE0F901F9018954F925F926A
:100DB0006F927F928F929F92AF92BF92CF92DF926B
:100DC000EF92FF920F931F93DF93CF93CDB7DEB7D0
:100DD0002C970FB6F894DEBF0FBECDBF0E94D6157C
:100DE0007B018C018091CE049091CF04B701681BE8
:100DF000790B80E090E00E94361A29E53BE34EEA49
:100E000051E30E94C41A3B014C01F092CF04E092DE
:100E1000CE044090EE035090EF037E010894E11C55
:100E2000F11C10EDC12E14E0D12EAA24BB2400E049
:100E300010E0F801EE50FC4F60817181882777FD4A
:100E40008095982F0E94381AA40193010E94C41A19
:100E5000F70161937193819391937F01F601208152
:100E60003181F801E850FC4F80819181820F931FFE
:100E7000B4E035952795BA95E1F7821B930BF601FF
:100E8000819391936F01A4E095958795AA95E1F7D9
:100E9000F801E250FD4F918380839C01F3E0220F23
:100EA000331FFA95E1F7880F991F820F931FB20144
:100EB0000E945A1B669FC001679F900D769F900D00
:100EC0001124A80EB91E0E5F1F4F0630110509F040
:100ED000B0CF86ED94E0BE016F5F7F4F0E947E0130
:100EE0002091F0033091F1038091FE029091FF0276
:100EF00097FF03C0909581959F4F82179307BCF48D
:100F0000809100039091010397FF03C09095819514
:100F10009F4F821793075CF4809102039091030323
:100F20001816190624F481E080931E0202C0109264
:100F30001E028BED9FEFA80EB91E9FE9A916B10402
:100F400060F460901E027EEF872E72E0972E66EDB1
:100F5000A62E64E0B62E772405C080911E02882359
:100F600081F737C0F401C080D180662021F0F2E023
:100F70007F1609F46201F50160817181828193819C
:100F800020E030E04BE953E40E94C41A7B018C015D
:100F9000B601882777FD8095982F0E94381A9B010B
:100FA000AC01C801B7010E94391928E03AEB42E5CB
:100FB0005BE30E94C41AF50161937193819391934D
:100FC0005F01739422E030E0820E931E33E07316CB
:100FD00049F6E090DE04F090DF040091E004109107
:100FE000E1046091D6047091D7048091D804909167
:100FF000D904A80197010E94E00090933A038093DE
:1010000039036091DA047091DB048091DC049091E3
:10101000DD04A80197010E94E00090933C038093B7
:101020003B032C960FB6F894DEBF0FBECDBFCF9119
:10103000DF911F910F91FF90EF90DF90CF90BF90C5
:10104000AF909F908F907F906F905F904F9008959A
:101050000F931F93CF93DF93CEEFD1E006E113E020
:10106000F801619171918F0183E0759567958A957B
:10107000E1F789910E94BC16F2E0C230DF0781F7E8
:10108000DF91CF911F910F91089590931703809353
:101090001603909319038093180390931B03809376
:1010A0001A0390931D0380931C030E94280808953F
:1010B0008091FE0161E00E941C178091FF0161E0B8
:1010C0000E941C178091000261E00E941C17809111
:1010D000010261E00E941C1788EE93E00E9445081F
:1010E0006CE271E080E090E00E94FC150895EF92C0
:1010F000FF920F931F93CF93DF93182F589886E694
:1011000090E00E94551601E0C0E0D0E0E12EFF24FF
:10111000802F90E08E219F21892B11F0589A01C0D9
:10112000589886E690E00E945516000F2196C83028
:10113000D10571F7589A86E690E00E945516DF9126
:10114000CF911F910F91FF90EF900895813029F476
:101150008EEF0E94770880E804C08EEF0E94770827
:1011600080EC0E9477080895CF93DF93EC0103C0D1
:1011700021960E94770888818823D1F7DF91CF914B
:10118000089584E16EE141E00E94CB0387ED95E094
:101190000E94281880E061E00E941C1781E00E94F4
:1011A000A60880E091E00E94B40864EC79E080E059
:1011B00090E00E94FC150895AF92BF92CF92DF920B
:1011C000EF92FF920F931F93CF93DF93CAEBD2E07E
:1011D00001E01A8188819981602F70E0412F50E0F1
:1011E0002BEC30E00E949300010F239622E0C13ED9
:1011F000D20779F780915303A82EBB248091520324
:10120000E82EFF2400E010E09DEEC92E94E0D92ED8
:10121000C0E0D0E0CC9FC001CD9F900DDC9F900D31
:1012200011244997FC01EA9DC001EB9D900DFA9DA8
:10123000900D11248C53964F8C9FB0018D9F700D93
:101240009C9F700D1124882777FD8095982FA80109
:1012500097010E94271B22EE34E040E050E00E94FC
:101260008F1BF601219331936F012196C730D10571
:1012700089F6DF91CF911F910F91FF90EF90DF9052
:10128000CF90BF90AF9008950F931F93CF93DF93AC
:10129000C7EBD2E000E01A8168817981802F90E06D
:1012A000412F50E023ED30E00E94AF00010F239664
:1012B00082E0C13ED80779F70E94DC088FE064E144
:1012C00041E00E94CB03DF91CF911F910F910895D0
:1012D000CF93DF938091FC02882309F0CFC287ED82
:1012E00095E00E945218892B09F4C8C287ED95E059
:1012F0000E947D188F34910509F491C180359105C4
:101300004CF48534910509F4B6C28D34910509F089
:10131000B5C209C08335910509F4A6C28735910588
:1013200009F0ACC237C28DE480936E0383E18093F1
:101330006F03AEEFB2E022E08C9111969C91119771
:10134000E22FF0E0E259FC4F80832F5FE22FF0E0C4
:10135000E259FC4F90832F5F129683E0A430B807C8
:1013600059F7C4E0D3E028E08991999168E070E0F2
:101370000E945A1BE22FF0E0E259FC4F60832F5F7E
:10138000E22FF0E0E259FC4F70832F5F83E0CA3018
:10139000D80751F7CAE0D3E02EE08991999163E034
:1013A00070E00E945A1BE22FF0E0E259FC4F60838C
:1013B0002F5FE22FF0E0E259FC4F70832F5F83E054
:1013C000C031D80751F760911003709111038091DB
:1013D0001203909113032AE030E040E050E00E94B5
:1013E0008F1B209382033093830380911403909189
:1013F00015038093840390938503A6E1B2E028E16E
:101400008C9111969C911197E22FF0E0E259FC4FDC
:1014100080832F5FE22FF0E0E259FC4F90832F5F33
:10142000129682E0AE31B80759F7A6E1B3E020E2A8
:101430008C9111969C911197E22FF0E0E259FC4FAC
:1014400080832F5FE22FF0E0E259FC4F90832F5F03
:10145000129683E0A632B80759F7A6E2B3E020E37C
:101460008C9111969C911197E22FF0E0E259FC4F7C
:1014700080832F5FE22FF0E0E259FC4F90832F5FD3
:10148000129683E0A633B80759F782E08093AE0343
:10149000809136038093AF03809137039091380396
:1014A0008093B0039093B1038091390390913A03F4
:1014B0006AE070E00E945A1B6093B2037093B3031A
:1014C00080913B0390913C036AE070E00E945A1BBC
:1014D0006093B4037093B50383E08093B60320E078
:1014E00030E099E4E92FF0E0E259FC4FD901A35C28
:1014F000BC4F8C9180839F5FE92FF0E0E259FC4F55
:10150000D901AC5BBC4F8C9180839F5FE92FF0E0E9
:10151000E259FC4FD901A55BBC4F8C9180832F5FB2
:101520003F4F9F5F25303105E9F68091420380935C
:10153000C603809149038093C7038091430380933E
:10154000C803809152038093C90380915303809311
:10155000CA03809154038093CB03809155038093F9
:10156000CC03809156038093CD0320E030E0E22F3E
:10157000E05AF0E0E259FC4FD901A95ABC4F8C91D6
:1015800080832F5F3F4F2830310589F780915F03BB
:10159000909160038093D6039093D7031092D80361
:1015A0001092D903809161038093DA0380916203E2
:1015B0008093DB031092DC031092DD031092DE03B4
:1015C0001092DF031092E003809163038093E103A4
:1015D0006091640370916503809166039091670345
:1015E0002AE030E040E050E00E948F1B2093E203AD
:1015F0003093E30380916803909169038093E4033F
:101600009093E5031092E6031092E7031092E8032B
:101610001092E9038DE48093EA038DE7A3C08FE481
:1016200080936E03AEEFB2E021E08C9111969C9115
:101630001197E22FF0E0E259FC4F80832F5FE22FF9
:10164000F0E0E259FC4F90832F5F129683E0A430C4
:10165000B80759F7A4E0B3E027E08C9111969C916C
:101660001197E22FF0E0E259FC4F80832F5FE22FC9
:10167000F0E0E259FC4F90832F5F129683E0AA308E
:10168000B80759F76091100370911103809112030C
:10169000909113030E94381A20E030E040E251E4B8
:1016A0000E94C41A0E94051A60937B0370937C0306
:1016B000809114039091150380937D0390937E0392
:1016C0008091390390913A0380937F039093800334
:1016D00080913B0390913C0380938103909382031C
:1016E000A6E1B3E025E18C9111969C911197E22F30
:1016F000F0E0E259FC4F80832F5FE22FF0E0E259E7
:10170000FC4F90832F5F129683E0A232B80759F7FF
:10171000A6E2B3E021E28C9111969C911197E22F01
:10172000F0E0E259FC4F80832F5FE22FF0E0E259B6
:10173000FC4F90832F5F129683E0A233B80759F7CE
:1017400082E080939B038091360380939C03809179
:10175000630380939D0383E180939E038FE48093D2
:101760009F0382E38093FD02F8948091C000806221
:101770008093C0008091C10080628093C1008091FD
:101780006E038093C60081E080936D038093FC021A
:10179000789474C087ED95E00E9452188197D4F335
:1017A000C0E0D0E087ED95E00E947D18FE01E35C8B
:1017B000FC4F808387ED95E00E947D18FE01EC5B75
:1017C000FC4F808387ED95E00E947D18FE01E55B6C
:1017D000FC4F80832196C530D10521F787ED95E038
:1017E0000E947D188093420387ED95E00E947D184A
:1017F0008093490387ED95E00E947D188093430311
:1018000087ED95E00E947D188093520387ED95E067
:101810000E947D188093530387ED95E00E947D1808
:101820008093540387ED95E00E947D1880935503C3
:1018300087ED95E00E947D1880935603C7E5D3E0BD
:1018400087ED95E00E947D18899383E0CF35D80716
:10185000B9F787ED95E00E947D1887ED95E00E942D
:101860007D180E9444090AC080E991E090936B03BF
:1018700080936A0303C081E080936C03DF91CF9172
:1018800008950F931F93CF93DF9360916A03709134
:101890006B036115710509F47DC0E8E0F4E0C8EF61
:1018A000D3E00EEF13E081E06039780721F4108275
:1018B00011821282138228813981442737FD409595
:1018C000542F80819181A281B381820F931FA41F25
:1018D000B51F81939193A193B19319921992D80155
:1018E0001D921D928D01B4E0E431FB07E1F66130F9
:1018F000710509F046C06091080470910904809157
:101900000A0490910B0420E931E040E050E00E948D
:101910008F1B3093FF032093FE0360910C047091A2
:101920000D0480910E0490910F0420E931E040E015
:1019300050E00E948F1B30930104209300046091BB
:10194000100470911104809112049091130420E905
:1019500031E040E050E00E948F1B8091EE039091B7
:10196000EF03281B390B30930304209302041092D9
:1019700005041092040410920704109206040E94B9
:10198000440980916A0390916B03019790936B03D4
:1019900080936A038091F8039091F9032091FE03EC
:1019A0003091FF03821B930B9093F9038093F8030C
:1019B0008091FA039091FB0320910004309101047F
:1019C000821B930B9093FB038093FA038091FC039B
:1019D0009091FD032091020430910304821B930B2C
:1019E0009093FD038093FC03DF91CF911F910F91A2
:1019F00008958CE08093B8008AE362E30E94690551
:101A00009091F90280E02091F80230E0822B932B34
:101A1000909581959F4F9093F9038093F80390914F
:101A2000F70280E02091F60230E0822B932B909316
:101A3000FB038093FA039091FB0280E02091FA026D
:101A400030E0822B932B9093FD038093FC030E9444
:101A5000410C0895CF92DF92EF92FF921F93CF93A4
:101A6000DF930E94C108E0906502F0906602C0908A
:101A70004D02D0904E0210E08AE064E141E00E9405
:101A8000CB0385EA94E060E171E00E948C0086EB74
:101A900094E060E171E00E948C00412F50E0FA0177
:101AA000EE0FFF1FE40FF51FEE0FFF1FE55BFD4F6D
:101AB0006081262F3181C901DC0105C0F0E0EB55C2
:101AC000FB4F80831196EA2FE61B8C918823B1F798
:101AD000FA01EE0FFF1FE40FF51FEE0FFF1FDF01EE
:101AE000A55BBD4F14960D90BC91A02D8D919C913E
:101AF0001197E35BFD4FEC01288139818081918151
:101B000013966C91139712964C91F901099581E007
:101B10000E94A60885EA94E00E94B40882E00E9430
:101B2000A60886EB94E00E94B40820E030E08FB76E
:101B3000F894F901ED5BFD4FE081F0E0EE0FFF1F3F
:101B4000EA5FFD4F0190F081E02D8FBF789447E070
:101B5000ED36F40710F082E001C080E0D901A9530E
:101B6000BB4F90E0EC54F44008F491E0892B8C9347
:101B70002F5F3F4F23303105D1F68091C904982F54
:101B800080FF04C08091C80481FD6DC091FF06C034
:101B90008091C80481FF02C012E066C08091C80431
:101BA00080FF05C01F5F123108F065CF65CF81FF50
:101BB00005C0115008F060CF11E15ECF8091C704DD
:101BC00080FF29C0812F90E0FC01EE0FFF1FE80F7E
:101BD000F91FEE0FFF1FDF01A55BBD4F14960D909F
:101BE000BC91A02D8D919C911197E35BFD4F1496B4
:101BF0006C916195DC0112962D913C911397808137
:101C00009181F9010995112309F036CFE601888108
:101C1000F701808331CF81FF88CF812F90E0FC01D5
:101C2000EE0FFF1FE80FF91FEE0FFF1FDF01A55B8F
:101C3000BD4F14964D915C911597EA01A881B98129
:101C4000E35BFD4F12962D913C911397808191811A
:101C50006C81F9010995112309F00ECFF6018081FD
:101C6000D7018C9309CF10E084E16EE141E00E943E
:101C7000CB03112339F481E291E00E94B4080E9461
:101C8000440904C081E391E00E94B40882E00E940C
:101C9000A6088FE391E00E94B40887ED95E040E04C
:101CA00052EC61E070E00E94CB17DF91CF911F9161
:101CB000FF90EF90DF90CF900895DF93CF930F9236
:101CC000CDB7DEB7CE01019660E070E041E050E0B4
:101CD0002BEC30E00E949300998180911F029817AD
:101CE00009F449C028E220933D039EE19093440308
:101CF00087E180934B0320933E03909345038093A9
:101D00004C0385E580933F031092460310924D03E8
:101D10008FE2809340031092470310924E0310927B
:101D200041031092480310924F038AE580934203C7
:101D30008DE280934903209343038093520381E40F
:101D4000809353031092540310925503109256033C
:101D5000E7E5F3E0119283E0EF35F807D9F7109249
:101D600005041092040410920704109206041092C5
:101D7000EC040E9444090F90CF91DF91089587ED04
:101D800095E040E052EC61E070E00E94CB178DE0FE
:101D900061E00E941C178CE061E00E941C172C98E7
:101DA0000E9458080E94DC080E945D0E84EF8BB9E7
:101DB000EDE6F0E08081846F8083E8E6F0E084E087
:101DC000808380818160808381E080936B000E94AA
:101DD00033050E94D6157093FF046093FE0480E9DA
:101DE00091E0909315048093140408952F923F92EC
:101DF0004F925F926F927F928F929F92AF92BF921B
:101E0000CF92DF92EF92FF920F931F93CF93DF93C6
:101E100080902C0390902D032CED821625E09206E5
:101E200014F444E61CC02091560340ED841647E0AC
:101E300094069CF4C4018C5D954030E0BC01629F27
:101E4000C001639F900D729F900D112464EF71E0AB
:101E50000E94461B44E6461B02C044E6421B80919A
:101E60005403282E332480915503482E552466E2CE
:101E7000662E63E0762E5CE9A52E54E0B52ECC24C8
:101E8000DD24F301E080F180FDEDEF16F5E0FF06C3
:101E900034F020EDE21627E0F20644F40AC08CED9F
:101EA00095E08E199F09845F91401CF084EF91E0CA
:101EB00013C06DEDE61665E0F60624F0C7018C5DF3
:101EC000954004C08CED95E08E199F0985309105F1
:101ED00018F4C0E0D0E002C0EC01249772E0C7160D
:101EE00009F445C0CE0164E670E00E94461BFB0188
:101EF000EE0FFF1FE351FB4F00811181FB01EE0F3D
:101F0000FF1FE151FB4F20813181201B310BFB0171
:101F100064E670E0E69FC001E79F900DF69F900D8C
:101F20001124FE01E81BF90B2E9FC0012F9F900D7D
:101F30003E9F900D11240E94461B060F171FF501AE
:101F400011830083C29DC001C39D900DD29D900D51
:101F5000112464EF71E00E94461B84E6861B849F77
:101F6000C001112464E670E00E94461B11C0F50117
:101F7000D183C083C49DC001C59D900DD49D900D9B
:101F8000112464EF71E00E94461BF4E6F61B6F2FEC
:101F9000062F10E096012E5F3A4FF601E35CFC4FEE
:101FA000808190E0BC01069FC001079F900D169FA5
:101FB000900D112464E670E00E94461BF9016083D5
:101FC00096012B5F3A4FF601E55BFC4F808190E074
:101FD000BC01069FC001079F900D169F900D112414
:101FE00064E670E00E94461BF9016083FCEDEF1689
:101FF000F5E0FF0644F4F50180819181909581958B
:102000009F4F918380830894C11CD11C62E070E0D3
:10201000660E771EA60EB71E73E0C716D10409F030
:1020200030CFB401882777FD8095982F2CEB32E0D4
:1020300040E050E00E94271B605D7F4B8B4090404A
:1020400024E833E040E050E00E948F1B22583B4FD1
:102050003093A3042093A20410913A0581E10E94D9
:102060009A16E12FF0E0E770F070EE0FFF1FE65DCB
:10207000FA4F918380831F5F10933A05EAE2F5E0FF
:1020800020E030E081919191280F391F85E0EA33FB
:10209000F807C1F7C90161E470E00E94461B609334
:1020A0006303862F80518C3528F010923B051092E7
:1020B00029050BC0683610F081E005C0643610F0C9
:1020C00082E001C084E080933B0560913B0566237C
:1020D00009F43FC080912905E090CA04F090CB0438
:1020E0000091CC041091CD04209140053091410520
:1020F0004091420550914305882361F020573F42AB
:102100004C4F5F4F2E153F054007510710F51092B9
:10211000290517C080E894E8AEE1B0E004C0B595A9
:10212000A795979587956A95D2F7820F931FA41F5D
:10213000B51F8E159F05A007B10758F481E0809365
:102140002905E0924005F092410500934205109365
:10215000430580916A0390916B03892B31F4809140
:10216000140490911504892B11F01D9A09C08091D7
:102170000105813009F42D988091A40481112D9AD4
:102180002091CA043091CB044091CC045091CD04ED
:1021900080913C0590913D05A0913E05B0913F0591
:1021A00082179307A407B507B8F480911E0288230D
:1021B00081F4109201051D9A205E3E45484F5F4F05
:1021C00020933C0530933D0540933E0550933F05D9
:1021D00003C081E0809301050E946809DF91CF91DF
:1021E0001F910F91FF90EF90DF90CF90BF90AF9035
:1021F0009F908F907F906F905F904F903F902F9027
:102200000895CF92DF92EF92FF920F931F93DF9387
:10221000CF9300D000D000D0CDB7DEB70E94F90C2C
:102220000E94D6060E9489058091F2039091F303E3
:102230009A8389838091F4039091F5039C838B8327
:102240008091F6039091F7039E838D830E94D615AB
:102250006093E2047093E3048093E4049093E504B4
:102260000E94F60E0E94D6152091E2043091E304FC
:102270004091E4045091E504621B730B840B950BB1
:102280006A5872408040904068F30E94890576EE5B
:10229000E72E74E0F72E00E010E06E010894C11CF8
:1022A000D11CF601E00FF11FD801AE50BC4F2081C8
:1022B00031818D919C91280F391FF801EC5FFC4F03
:1022C000D7018D919C910196820F931F63E070E07E
:1022D0000E945A1B71836083C90162E070E00E9412
:1022E0005A1BF701619371937F010E5F1F4F0630F8
:1022F0001105B9F626960FB6F894DEBF0FBECDBF16
:10230000CF91DF911F910F91FF90EF90DF90CF90D1
:1023100008952F923F924F925F926F927F928F9289
:102320009F92AF92BF92CF92DF92EF92FF920F9364
:102330001F93DF93CF93CDB7DEB769970FB6F894AD
:10234000DEBF0FBECDBF2091CA043091CB044091B7
:10235000CC045091CD048091080590910905A0917D
:102360000A05B0910B0582179307A407B50708F07B
:10237000C6C1205E314B4F4F5F4F2093080530930D
:10238000090540930A0550930B050E942003809194
:10239000F4029091F502C39764F18091A404813016
:1023A00041F58CED95E0909327038093260390935D
:1023B00029038093280390932B0380932A0386E4B8
:1023C00095E090932D0380932C038091F4029091DB
:1023D000F5028B51944024F01092A4041092FB0457
:1023E0008091FC049091FD0401969093FD048093EC
:1023F000FC048091F4029091F50201969093F5020D
:102400008093F40280912C0390912D0334E08C345E
:1024100093070CF0B2C010921105109210051092A3
:1024200013051092120510921505109214051092C2
:102430000D0510920C0510920F0510920E053091AB
:1024400028053F5F3093280540912A0350912B03C4
:1024500064E04C345607ACF4809128039091290332
:102460008C54944074F48091A404882351F4343142
:1024700009F0E2C080E991E0909315048093140480
:10248000DBC0B7E04D365B07ECF0809128039091FC
:1024900029038D569740B4F08091A404882391F4C9
:1024A000343109F0C9C08CED95E090931702809308
:1024B00016020E942A0D0E94D6157093FF046093A5
:1024C000FE04BAC020915C032223C1F030E0809169
:1024D000000590E028233923232B41F08091FB0451
:1024E000882321F081E08093A404A4C08091A404F7
:1024F000882309F49FC01092A4049CC0F4E04C34DB
:102500005F073CF080912603909127038C54944000
:1025100054F48091A404813031F4343109F08CC03A
:102520001092A40489C04D56574044F4809126036C
:10253000909127038D5697400CF47CC0809128031E
:10254000909129038C5697400CF074C08091A4049C
:10255000882309F06FC08091140490911504892B91
:1025600009F068C080910105813009F063C0343101
:1025700009F062C08093A4045FC08D5697400CF4AC
:102580005BC08091A404882309F056C080912A037F
:1025900090912B038C549440ACF48091280390913B
:1025A00029038C54944074F420912805243131F48B
:1025B00080E991E090936B0380936A032F5F2093EF
:1025C00028053AC0809128039091290337E08D3681
:1025D000930734F08091060490910704029608C096
:1025E0008C54944054F4809106049091070402970F
:1025F00090930704809306041AC08091260390915B
:10260000270357E08D36950734F0809104049091AC
:102610000504029608C08C54944064F4809104042C
:1026200090910504029790930504809304040E94FE
:10263000440902C01092280540912E0350912F03A7
:10264000CA01855195408F58914010F0F0E001C0CB
:10265000F2E0B6E0453A5B0714F0E4E001C0E0E0E8
:10266000209130033091310365E02431360714F0B6
:1026700070E001C078E0C901855195408F589140C4
:1026800010F060E001C060E1255A364014F490E09B
:1026900001C090E280E0445155400CF481E08F0F7E
:1026A0008E0F870F860F890F80930005282F30E04B
:1026B0008091570390E082239323892B39F48091F2
:1026C000F4029091F502C3970CF425C28091360371
:1026D000882359F410920D0510920C0510920F05E5
:1026E00010920E0581E08093360380915C0390E0A8
:1026F00028233923232B19F481E08093FB040E94C3
:1027000001110E94D6156093CA047093CB04809384
:10271000CC049093CD049B014091FE045091FF04A2
:10272000241B350B30933803209337037093FF0439
:102730006093FE0430913603398380914203282F41
:1027400030E040E050E02C8B3D8B4E8B5F8B8091D6
:102750004903282F30E040E050E0288B398B4A8B2A
:102760005B8B45E055E05F874E8782E295E09D8771
:102770008C87ACE1B5E0BB87AA87E6E1F5E0F98795
:10278000E88722E035E03F832E8344E053E05D8319
:102790004C839CE9292E94E0392E8CE0482E85E06C
:1027A000582E00E1802E05E0902E8DE393E09B8370
:1027B0008A8366247724AA24BB249981913009F066
:1027C00061C0A2E06A1609F45DC0F1012081318187
:1027D000220F331FF1E0253F3F0714F024EF31E0D3
:1027E000F501EC5FFB4FD501A75CBC4F0190F08178
:1027F000E02D8D919C91E81BF90BC9012EEF8C30D7
:10280000920714F48CE09EEF8F01080F191FB80196
:10281000882777FD8095982F2C893D894E895F897F
:102820000E94271B24E630E040E050E00E948F1B0E
:102830006901D2016D917C91600F711FB7E2613126
:102840007B0714F060E177E29B01E8ED603F7E07D3
:1028500014F420EF38EDD2012D933C93B901882771
:1028600077FD8095982F288939894A895B890E944C
:10287000271BBCE09595879577956795BA95D1F715
:102880007B016CC0F101C080D180C601835A9E4F8C
:10289000AA81BB811C918B5B924078F4E0E5F0E06B
:1028A000CE9EC001CF9E900DDE9E900D1124612F13
:1028B00070E00E945A1BCB0112C0B601882777FD39
:1028C0008095982F20E530E040E050E00E94271BE3
:1028D000212F30E040E050E00E948F1BC901AC8105
:1028E000BD812D913C91F40160817181621B730B5C
:1028F000680F791FFEE361387F0714F060E87EE31C
:10290000CB0141EC6038740714F480E891ECD401F9
:102910008D939C93C90137FF03C0909581959F4F7C
:10292000815892401CF0F40111821082F301EC5B9B
:10293000FC4F208130E0D4018D919C916DE770E0D7
:102940000E945A1B269F7001279FF00C369FF00CA7
:102950001124A6E0F594E794AA95E1F7EC81FD81B6
:1029600000811181C80181569F4FAE81BF816C915A
:102970008F539140A0F4862F90E0FC01E09FC001AE
:10298000E19F900DF09F900D112460EB7FEF0E946E
:102990005A1B9B012C0D3D1D398F288F15C070E0EF
:1029A00080E090E09801442737FD4095542F0E9425
:1029B000271B20EB3FEF4FEF5FEF0E948F1BC601FD
:1029C000820F931F998F888FAC85BD858D919C91C7
:1029D00011979801281B390B0D931C93EA85FB85F1
:1029E00080819181A885B985ED91FC911197E80FBF
:1029F000F91FE20FF31F8D939C93AA85BB852D933E
:102A00003C93CF0181589D4FAE85BF852C918F5F40
:102A1000944078F4822F90E0E89FB001E99F700D18
:102A2000F89F700D1124F5E075956795FA95E1F71B
:102A300011C0BF01882777FD8095982F30E040E0D6
:102A400050E00E94271BE5E095958795779567955F
:102A5000EA95D1F7F501EA56FB4F288D398D2E0DF9
:102A60003F1D261B370B318320830894611C711C8A
:102A700042E050E0A40EB51E8E859F8501969F878B
:102A80008E87AC85BD851296BD87AC87EA85FB85B0
:102A90003296FB87EA87288539852E5F3F4F398735
:102AA00028874E815F814F5F5F4F5F834E838C81AC
:102AB0009D8102969D838C83A2E0B0E02A0E3B1E8E
:102AC0004A0E5B1E8A0E9B1EEA81FB813196FB83B8
:102AD000EA83F6E0AF16B10409F06FCE0E948702D8
:102AE0000E94280869960FB6F894DEBF0FBECDBFCE
:102AF000CF91DF911F910F91FF90EF90DF90CF90DA
:102B0000BF90AF909F908F907F906F905F904F900D
:102B10003F902F90089510923603E7CD1F920F92A9
:102B20000FB60F9211242F933F938F939F93AF93E0
:102B3000BF9380914E0590914F05A0915005B091A3
:102B40005105309152050196A11DB11D232F2D5F16
:102B50002D3720F02D570196A11DB11D2093520550
:102B600080934E0590934F05A0935005B093510567
:102B700080914A0590914B05A0914C05B0914D056F
:102B80000196A11DB11D80934A0590934B05A0931A
:102B90004C05B0934D05BF91AF919F918F913F919F
:102BA0002F910F900FBE0F901F9018959FB7F8941C
:102BB00020914A0530914B0540914C0550914D05AF
:102BC00086B5A89B06C08F3F21F02F5F3F4F4F4F28
:102BD0005F4F9FBF542F432F322F2227280F311DC5
:102BE000411D511D82E0220F331F441F551F8A953E
:102BF000D1F7B901CA0108959B01AC017FB7F894E0
:102C000080914A0590914B05A0914C05B0914D05DE
:102C100066B5A89B05C06F3F19F00196A11DB11DB7
:102C20007FBFBA2FA92F982F8827860F911DA11D2E
:102C3000B11D62E0880F991FAA1FBB1F6A95D1F7CB
:102C4000BC012DC0FFB7F89480914A0590914B05C7
:102C5000A0914C05B0914D05E6B5A89B05C0EF3F8E
:102C600019F00196A11DB11DFFBFBA2FA92F982FF2
:102C700088278E0F911DA11DB11DE2E0880F991FBD
:102C8000AA1FBB1FEA95D1F7861B970B885E93405E
:102C9000C8F2215030404040504068517C4F2115CF
:102CA00031054105510571F60895019739F0880FF6
:102CB000991F880F991F02970197F1F7089578944B
:102CC00084B5826084BD84B5816084BD85B5826031
:102CD00085BD85B5816085BDEEE6F0E080818160CF
:102CE0008083E1E8F0E010828081826080838081CF
:102CF00081608083E0E8F0E0808181608083E1EBA7
:102D0000F0E0808184608083E0EBF0E0808181608E
:102D10008083EAE7F0E08081846080838081826044
:102D2000808380818160808380818068808310922D
:102D3000C1000895982F8E3008F09E5097708091B2
:102D400042028295880F880F807C892B80937C00BB
:102D500080917A00806480937A0080917A0086FD69
:102D6000FCCF2091780040917900942F80E030E0F2
:102D7000282B392BC90108951F93CF93DF93182F68
:102D8000EB0161E00E941C17209709F44AC0CF3F75
:102D9000D10509F449C0E12FF0E0E255FF4F8491DD
:102DA0008330C1F0843028F4813051F08230B1F5A5
:102DB0000CC0863019F1873049F1843079F514C0A0
:102DC00084B5806884BDC7BD33C084B5806284BDCE
:102DD000C8BD2EC080918000806880938000D09311
:102DE0008900C093880024C0809180008062809315
:102DF0008000D0938B00C0938A001AC08091B000ED
:102E000080688093B000C093B30012C08091B0007E
:102E100080628093B000C093B4000AC0C038D1056E
:102E20001CF4812F60E002C0812F61E00E944217F4
:102E3000DF91CF911F910895482F50E0CA01865627
:102E40009F4FFC0124914A575F4FFA0184918823D8
:102E5000C1F0E82FF0E0EE0FFF1FE859FF4FA591FA
:102E6000B491662341F49FB7F8948C912095822306
:102E70008C939FBF08959FB7F8948C91822B8C936D
:102E80009FBF0895482F50E0CA0182559F4FFC0113
:102E90002491CA0186569F4FFC0134914A575F4FD7
:102EA000FA019491992309F444C0222351F123306B
:102EB00071F0243028F42130A1F0223011F514C033
:102EC0002630B1F02730C1F02430D9F404C080910D
:102ED00080008F7703C0809180008F7D8093800079
:102EE00010C084B58F7702C084B58F7D84BD09C0C2
:102EF0008091B0008F7703C08091B0008F7D809368
:102F0000B000E92FF0E0EE0FFF1FEE58FF4FA59144
:102F1000B491662341F49FB7F8948C913095832344
:102F20008C939FBF08959FB7F8948C91832B8C93BB
:102F30009FBF08951F920F920FB60F9211242F93E7
:102F40003F934F938F939F93EF93FF934091C600CE
:102F5000E091D305F091D40531969F012F77307021
:102F600031978091D5059091D6052817390739F00A
:102F7000ED5AFA4F40833093D4052093D305FF9147
:102F8000EF919F918F914F913F912F910F900FBE95
:102F90000F901F901895CF93DF93EC019A01AB012E
:102FA000E885F985203081EE380780E0480780E029
:102FB000580709F449C081E090E00A8802C0880FF0
:102FC000991F0A94E2F7808360E079E08DE390E056
:102FD0000E948F1B2150304040405040CA01B9012F
:102FE00022E030E040E050E00E948F1BEC81FD8148
:102FF0003083EE81FF812083EA85FB85208141E0DB
:1030000050E0CA010E8402C0880F991F0A94E2F7AB
:10301000282B2083EA85FB852081CA010F8402C00A
:10302000880F991F0A94E2F7282B2083EA85FB85F5
:103030008081088802C0440F551F0A94E2F7842B50
:103040008083DF91CF910895108220E130E0CECFD0
:10305000FC01A285B3854C9121E030E0C9010684D2
:1030600002C0880F991F0A94E2F7809584238C93FD
:10307000A285B3854C91C901078402C0880F991FAE
:103080000A94E2F7809584238C93A285B3858C9172
:10309000008802C0220F331F0A94E2F720952823EC
:1030A0002C930895DC011296ED91FC911397E05852
:1030B000FF4F2191319180819181281B390B2F770E
:1030C0003070C9010895DC011296ED91FC911397BF
:1030D000EE57FF4F2081318192918291E058F0406C
:1030E0008217930719F42FEF3FEF05C0E20FF31F8C
:1030F0008081282F30E0C9010895DC011296ED91FE
:10310000FC911397DF01AE57BF4F2D913C91119762
:10311000E058FF4F80819181E058F040821793077B
:1031200019F42FEF3FEF0BC0E20FF31F80812F5FE9
:103130003F4F2F7730702D933C93282F30E0C901FB
:103140000895DC011296ED91FC911397EE57FF4F15
:1031500080819181929382930895FC01A085B1852D
:1031600021898C9190E0022E02C0959587950A9452
:10317000E2F780FFF6CF0484F585E02D60830895A3
:1031800085EE92E09093D8058093D70583E595E08E
:103190009093DA058093D90585EC90E09093DC0557
:1031A0008093DB0584EC90E09093DE058093DD0551
:1031B00080EC90E09093E0058093DF0581EC90E057
:1031C0009093E2058093E10586EC90E09093E4050E
:1031D0008093E30584E08093E50583E08093E60532
:1031E00087E08093E70585E08093E80581E08093A0
:1031F000E90508950E945F160E94BF0E0E94891182
:10320000FDCF0F931F93CF93DF938C01EB0109C088
:103210002196D801ED91FC910190F081E02DC8013B
:10322000099568816623A1F7DF91CF911F910F91D6
:103230000895EF92FF920F931F93CF93DF938C012A
:103240007B01EA010CC0D7016D917D01D801ED91A0
:10325000FC910190F081E02DC801099521972097FC
:1032600091F7DF91CF911F910F91FF90EF9008950B
:103270005058BB27AA270ED04DC13ED130F043D1C4
:1032800020F031F49F3F11F41EF433C10EF4E095A9
:10329000E7FB29C1E92F4FD180F3BA176207730703
:1032A0008407950718F071F49EF567C10EF4E09558
:1032B0000B2EBA2FA02D0B01B90190010C01CA01F0
:1032C000A0011124FF27591B99F0593F50F4503E9B
:1032D00068F11A16F040A22F232F342F4427585F8D
:1032E000F3CF469537952795A795F0405395C9F7A5
:1032F0007EF41F16BA0B620B730B840BBAF091505D
:10330000A1F0FF0FBB1F661F771F881FC2F70EC0FB
:10331000BA0F621F731F841F48F4879577956795CE
:10332000B795F7959E3F08F0B3CF9395880F08F0B7
:103330009927EE0F9795879508950CD0EBC0E3D0B1
:1033400040F0DAD030F021F45F3F19F0CCC05111D9
:1033500015C1CFC0F0D098F39923C9F35523B1F329
:10336000951B550BBB27AA2762177307840738F0F4
:103370009F5F5F4F220F331F441FAA1FA9F333D053
:103380000E2E3AF0E0E830D091505040E695001C07
:10339000CAF729D0FE2F27D0660F771F881FBB1FC3
:1033A000261737074807AB07B0E809F0BB0B802D9D
:1033B000BF01FF2793585F4F2AF09E3F510568F0E9
:1033C00092C0DCC05F3FECF3983EDCF386957795C6
:1033D0006795B795F7959F5FC9F7880F911D9695EB
:1033E000879597F90895E1E0660F771F881FBB1F47
:1033F000621773078407BA0720F0621B730B840BF4
:10340000BA0BEE1F88F7E095089504D06894B111C7
:10341000B5C0089598D088F09F5790F0B92F99279C
:10342000B751A0F0D1F0660F771F881F991F1AF0CF
:10343000BA95C9F712C0B13081F09FD0B1E00895BC
:103440009CC0672F782F8827B85F39F0B93FCCF33D
:10345000869577956795B395D9F73EF490958095C5
:10346000709561957F4F8F4F9F4F0895E89409C0E5
:1034700097FB3EF490958095709561957F4F8F4FA7
:103480009F4F9923A9F0F92F96E9BB279395F695BD
:10349000879577956795B795F111F8CFFAF4BB0F3B
:1034A00011F460FF1BC06F5F7F4F8F4F9F4F16C09F
:1034B000882311F096E911C0772321F09EE8872F29
:1034C000762F05C0662371F096E8862F70E060E0E5
:1034D0002AF09A95660F771F881FDAF7880F96955E
:1034E000879597F9089597F99F6780E870E060E005
:1034F00008959FEF80EC089500240A94161617068D
:1035000018060906089500240A94121613061406D4
:1035100005060895092E0394000C11F4882352F037
:10352000BB0F40F4BF2B11F460FF04C06F5F7F4FEF
:103530008F4F9F4F089557FD9058440F551F59F0D6
:103540005F3F71F04795880F97FB991F61F09F3F90
:1035500079F087950895121613061406551FF2CFB9
:103560004695F1DF08C0161617061806991FF1CF09
:1035700086957105610508940895E894BB27662730
:103580007727CB0197F908950BD0C4CFB5DF28F08A
:10359000BADF18F0952309F0A6CFABCF1124EECFF8
:1035A000CADFA0F3959FD1F3950F50E0551F629F9E
:1035B000F001729FBB27F00DB11D639FAA27F00D8C
:1035C000B11DAA1F649F6627B00DA11D661F829FB3
:1035D0002227B00DA11D621F739FB00DA11D621F98
:1035E000839FA00D611D221F749F3327A00D611DB5
:1035F000231F849F600D211D822F762F6A2F112497
:103600009F5750408AF0E1F088234AF0EE0FFF1FE9
:10361000BB1F661F771F881F91505040A9F79E3F20
:10362000510570F060CFAACF5F3FECF3983EDCF31A
:10363000869577956795B795F795E7959F5FC1F75D
:10364000FE2B880F911D9695879597F90895629F97
:10365000D001739FF001829FE00DF11D649FE00D8A
:10366000F11D929FF00D839FF00D749FF00D659FEB
:10367000F00D9927729FB00DE11DF91F639FB00DEA
:10368000E11DF91FBD01CF0111240895AA1BBB1B29
:1036900051E107C0AA1FBB1FA617B70710F0A61B52
:1036A000B70B881F991F5A95A9F780959095BC0173
:1036B000CD01089597FB092E07260AD077FD04D087
:1036C000E5DF06D000201AF4709561957F4F0895CC
:1036D000F6F7909581959F4F0895A1E21A2EAA1BA7
:1036E000BB1BFD010DC0AA1FBB1FEE1FFF1FA217B2
:1036F000B307E407F50720F0A21BB30BE40BF50BAF
:10370000661F771F881F991F1A9469F76095709537
:10371000809590959B01AC01BD01CF01089597FB69
:10372000092E05260ED057FD04D0D7DF0AD0001C85
:1037300038F450954095309521953F4F4F4F5F4F4E
:103740000895F6F790958095709561957F4F8F4F0E
:103750009F4F0895EE0FFF1F0590F491E02D0994FF
:103760002F923F924F925F926F927F928F929F9291
:10377000AF92BF92CF92DF92EF92FF920F931F937F
:10378000CF93DF93CDB7DEB7CA1BDB0B0FB6F89430
:10379000DEBF0FBECDBF09942A88398848885F8470
:1037A0006E847D848C849B84AA84B984C884DF80E1
:1037B000EE80FD800C811B81AA81B981CE0FD11DC5
:1037C0000FB6F894DEBF0FBECDBFED010895F8949B
:1037D000FFCF4D756C746957696920436F6E6669D8
:1037E00067002020202020202020202020202020B2
:1037F000202000536176696E672053657474696E8A
:10380000677300736B697070696E672053617665CA
:10381000006578697420636F6E666967005049546B
:10382000434826524F4C4C205000524F4C4C2020C5
:10383000205000524F4C4C2020204900524F4C4CFD
:103840002020204400504954434820205000504933
:103850005443482020490050495443482020440004
:103860005941572020202050005941572020202026
:1038700049005941572020202044004C4556454CD2
:10388000202050004C4556454C20204900524320F2
:1038900052415445005243204558504F005049541E
:1038A000434826524F4C4C205241544500594157F1
:1038B0002052415445005448524F54544C452050D6
:1038C0004944004261747465727920566F6C7400CB
:1038D000090A0B0306050000DE05DE05DE05DE0530
:1038E000DE05DE05DE05DE05DC05DC05DC05DC05C8
:1038F00001923E020101013E020301023E0200016B
:10390000013E020202023E020201023E02010100E9
:10391000390234020104050602070001034B013D90
:1039200003200258013D0320026101440325026A7D
:10393000014B032A0273013E0320027C014503254B
:103940000285014C032A028E013F032002970146A3
:10395000032502A0014D032A02A90142032002B25D
:103960000149032502BB0152032F02C30153033453
:1039700002CB0154033402DB0155033402E4015647
:10398000033402F101630339021F02013D030744BE
:1039900003074B030752030153030154030155036B
:1039A00001560301FE0306440506040404570308F8
:1039B000EC040100000000AD180119191952187D1E
:1039C000186318A11800FFFFFFFFFFFFFFFFFFFFB5
:1039D000FFFFFFFFFFFFFFFFFFFFFFFFFFFFFFFFF7
:1039E000FFFFFFFFFFFFFFFFFFFFFFFFFFFFFFFFE7
:1039F000FFFFFFFFFFFFFFFFFFFFFFFFFFFFFFFFD7
:103A0000FFFFFFFFFFFFFFFFFFFFFFFFFFFFFFFFC6
:107800000C94343C0C94513C0C94513C0C94513CE1
:107810000C94513C0C94513C0C94513C0C94513CB4
:107820000C94513C0C94513C0C94513C0C94513CA4
:107830000C94513C0C94513C0C94513C0C94513C94
:107840000C94513C0C94513C0C94513C0C94513C84
:107850000C94513C0C94513C0C94513C0C94513C74
:107860000C94513C0C94513C11241FBECFEFD8E036
:10787000DEBFCDBF11E0A0E0B1E0ECE9FFE702C060
:1078800005900D92A230B107D9F712E0A2E0B1E065
:1078900001C01D92AD30B107E1F70E942D3D0C945F
:1078A000CC3F0C94003C982F959595959595959582
:1078B000905D8F708A307CF0282F295A8091C0000B
:1078C00085FFFCCF9093C6008091C00085FFFCCF60
:1078D0002093C6000895282F205DF0CF982F809127
:1078E000C00085FFFCCF9093C6000895EF92FF92F1
:1078F0000F931F93EE24FF2487018091C00087FD22
:1079000017C00894E11CF11C011D111D81E4E8164B
:1079100082E4F8068FE0080780E0180770F3E09132
:107920000401F091050109958091C00087FFE9CF1E
:107930008091C6001F910F91FF90EF9008950E94D3
:10794000763C982F8091C00085FFFCCF9093C600B5
:1079500091362CF490330CF09053892F089597555D
:10796000892F08951F930E949F3C182F0E949F3CCF
:107970001295107F810F1F9108951F93182F882350
:1079800021F00E94763C1150E1F71F9108951F935A
:10799000182F0E94763C803249F0809103018F5F5E
:1079A000809303018530C1F01F9108958091C0003C
:1079B00085FFFCCF84E18093C6008091C00085FFE5
:1079C000FCCF1093C6008091C00085FFFCCF80E102
:1079D0008093C6001F910895E0910401F091050184
:1079E00009951F9108950E94763C803241F0809164
:1079F00003018F5F80930301853081F008958091AA
:107A0000C00085FFFCCF84E18093C6008091C00058
:107A100085FFFCCF80E18093C6000895E0910401CA
:107A2000F09105010995089540E951E08823A1F0FE
:107A30002D9A28EE33E0FA013197F1F721503040CA
:107A4000D1F72D9828EE33E0FA013197F1F7215064
:107A50003040D1F7815061F708953F924F925F9285
:107A60006F927F928F929F92AF92BF92CF92DF924E
:107A7000EF92FF920F931F93CF93DF93000080E16B
:107A80008093C4001092C50088E18093C10086E015
:107A90008093C2005098589A259A81E00E94143D24
:107AA00024E1F22E9EE1E92E85E9D82E0FE0C02ECA
:107AB00010E1B12EAA24A394B1E49B2EA6E58A2E50
:107AC000F2E57F2EE0E26E2E79E4572E63E5462E36
:107AD00050E5352E0E94763C8033B1F18133B9F107
:107AE000803409F46FC0813409F476C0823409F41B
:107AF00085C0853409F488C0803531F1823521F1A3
:107B0000813511F1853509F485C0863509F48DC0BC
:107B1000843609F496C0843709F403C1853709F423
:107B200072C1863709F466C0809103018F5F80932C
:107B30000301853079F6E0910401F0910501099582
:107B40000E94763C803351F60E94F33CC3CF0E94E2
:107B5000763C803249F78091C00085FFFCCFF092DF
:107B6000C6008091C00085FFFCCF9092C600809136
:107B7000C00085FFFCCF8092C6008091C00085FFC9
:107B8000FCCF7092C6008091C00085FFFCCF609250
:107B9000C6008091C00085FFFCCF5092C600809146
:107BA000C00085FFFCCF4092C6008091C00085FFD9
:107BB000FCCF3092C6008091C00085FFFCCFB09210
:107BC000C60088CF0E94763C863808F4BDCF0E945C
:107BD000763C0E94F33C7ECF0E94763C803809F4CC
:107BE0009CC0813809F40BC1823809F43CC1883942
:107BF00009F48FC080E00E94C73C6CCF84E10E94F2
:107C0000BD3C0E94F33C66CF85E00E94BD3C0E94D3
:107C1000F33C60CF0E94763C809306010E94763C44
:107C2000809307010E94F33C55CF0E94763C80333D
:107C300009F41DC183E00E94BD3C80E00E94C73C66
:107C400049CF0E94763C809309020E94763C809343
:107C5000080280910C028E7F80930C020E94763C79
:107C6000853409F415C18091080290910902892B8D
:107C700089F000E010E00E94763CF801E85FFE4FDA
:107C800080830F5F1F4F80910802909109020817AF
:107C9000190788F30E94763C803209F045CF809125
:107CA0000C0280FF01C16091060170910701660F0F
:107CB000771F7093070160930601A0910802B091AD
:107CC00009021097C9F0E8E0F1E09B01AD014E0F09
:107CD0005F1FF999FECF32BD21BD819180BDFA9A17
:107CE000F99A2F5F3F4FE417F50799F76A0F7B1F4B
:107CF00070930701609306018091C00085FFFCCF5F
:107D0000F092C6008091C00085FFFCCFB092C60003
:107D1000E1CE83E00E94C73CDDCE82E00E94C73CFA
:107D2000D9CE0E94763C809309020E94763C8093D3
:107D300008028091060190910701880F991F909386
:107D40000701809306010E94763C853409F4A6C0A1
:107D500080910C028E7F80930C020E94763C8032D0
:107D600009F0B8CE8091C00085FFFCCFF092C6002C
:107D7000609108027091090261157105B9F140E046
:107D800050E080910C02A82FA170B82FB27011C0E2
:107D9000BB2309F45CC0E0910601F0910701319624
:107DA000F0930701E09306014F5F5F4F46175707B7
:107DB000E8F4AA2369F3F999FECF209106013091E6
:107DC000070132BD21BDF89A90B58091C00085FFB2
:107DD000FCCF9093C6002F5F3F4F30930701209355
:107DE00006014F5F5F4F4617570718F38091C00099
:107DF00085FDE5CE8091C00085FFF8CFE0CE81E023
:107E00000E94C73C67CE0E94763C803209F08CCE3F
:107E10008091C00085FFFCCFF092C6008091C00029
:107E200085FFFCCFE092C6008091C00085FFFCCFAB
:107E3000D092C6008091C00085FFFCCFC092C600E2
:107E40008091C00085FFFCCFB092C60043CEE09188
:107E50000601F091070194918091C00085FFFCCF4D
:107E60009093C6009CCF80E10E94C73C33CE0E9415
:107E7000763C0E94763C182F0E94763C112309F430
:107E800083C0113009F484C08FE00E94C73C22CE29
:107E900080910C02816080930C02E5CE80910C02EF
:107EA000816080930C0259CF809107018823880F4D
:107EB000880B8A2180930B02809106019091070123
:107EC000880F991F90930701809306018091080203
:107ED00080FF09C080910802909109020196909359
:107EE000090280930802F894F999FECF1127E091D6
:107EF0000601F0910701C8E0D1E08091080290915D
:107F00000902103091F40091570001700130D9F34B
:107F100003E000935700E89500915700017001308D
:107F2000D9F301E100935700E89509901990009169
:107F3000570001700130D9F301E000935700E89534
:107F40001395103498F011270091570001700130FB
:107F5000D9F305E000935700E895009157000170B0
:107F60000130D9F301E100935700E895329602976A
:107F700009F0C7CF103011F00296E5CF112480919F
:107F8000C00085FFB9CEBCCE8EE10E94C73CA2CD19
:107F900085E90E94C73C9ECDF894FFCF8000FFFF8B
:107FA000FFFFFFFFFFFFFFFFFFFFFFFFFFFFFFFFE1
:107FB000FFFFFFFFFFFFFFFFFFFFFFFFFFFFFFFFD1
:107FC000FFFFFFFFFFFFFFFFFFFFFFFFFFFFFFFFC1
:107FD000FFFFFFFFFFFFFFFFFFFFFFFFFFFFFFFFB1
:107FE000FFFFFFFFFFFFFFFFFFFFFFFFFFFFFFFFA1
:107FF000FFFFFFFFFFFFFFFFFFFFFFFFFFFFFFFF91
:00000001FF
