:1000000019C028C027C026C025C024C023C022C0D4
:1000100021C020C01FC01EC01DC01CC01BC01AC0F4
:1000200019C018C02CC016C04AC014C013C012C0DA
:1000300011C010C011241FBECFEFD2E0DEBFCDBF74
:1000400011E0A0E0B1E001C01D92A934B107E1F7D1
:10005000ADD0C0C0D5CF86E18093C4001092C5005A
:1000600088ED8093C10086E08093C2001092440125
:1000700010922101109222011092430108951F92C3
:100080000F920FB60F9211248F939F93EF93FF93CC
:100090009091C60080914401803240F4E82FF0E056
:1000A000ED5DFE4F90838F5F80934401FF91EF9150
:1000B0009F918F910F900FBE0F901F9018951F92D8
:1000C0000F920FB60F9211242F938F939F93EF935C
:1000D000FF938091430190912201891780F4E82FCA
:1000E000F0E0EF5FFE4F20812093C6008F5F80938A
:1000F0004301891720F01092430110922201FF91D1
:10010000EF919F918F912F910F900FBE0F901F90A5
:100110001895F89490912201903240F4E92FF0E084
:10012000EF5FFE4F80839F5F9093220178948091D0
:10013000C00085FF14C080914301E82FF0E0EF5F1D
:10014000FE4F90819093C6008F5F80934301909102
:100150002201891720F01092430110922201089584
:1001600081E02091440190912101921708F080E0F4
:1001700008957894F5DF8823A9F0F89490912101EF
:10018000E92FF0E0ED5DFE4F80819F5F90932101AC
:1001900020914401921720F0109221011092440105
:1001A00078940895FFCF089556DF089554DF8FEFB8
:1001B00087B980E2AEDF86E5ACDF80E3AADF8EE2BE
:1001C000A8DF80E3A6DF80E3A4DF91E088B1892780
:0801D00088B9FCCFF894FFCFC1
:00000001FF
