:1000000019C028C027C026C025C024C023C022C0D4
:1000100021C020C01FC01EC01DC01CC0D1C01AC03E
:1000200019C018C02CC016C04AC014C013C012C0DA
:1000300011C010C011241FBECFEFD2E0DEBFCDBF74
:1000400011E0A0E0B1E001C01D92A036B107E1F7D8
:100050000DD12EC1D5CF8FE08093C4001092C50082
:1000600088ED8093C10086E08093C2001092510118
:1000700010922E0110922F011092500108951F929C
:100080000F920FB60F9211248F939F93EF93FF93CC
:100090009091C60080915101803240F4E82FF0E049
:1000A000E05DFE4F90838F5F80935101FF91EF9150
:1000B0009F918F910F900FBE0F901F9018951F92D8
:1000C0000F920FB60F9211242F938F939F93EF935C
:1000D000FF938091500190912F01891780F4E82FB0
:1000E000F0E0E25FFE4F20812093C6008F5F809397
:1000F0005001891720F01092500110922F01FF91AA
:10010000EF919F918F912F910F900FBE0F901F90A5
:100110001895F89490912F01903240F4E92FF0E077
:10012000E25FFE4F80839F5F90932F0178948091D0
:10013000C00085FF14C080915001E82FF0E0E25F1D
:10014000FE4F90819093C6008F5F809350019091F5
:100150002F01891720F01092500110922F0108955D
:1001600081E02091510190912E01921708F080E0DA
:1001700008957894F5DF8823A9F0F89490912E01E2
:10018000E92FF0E0E05DFE4F80819F5F90932E01AC
:1001900020915101921720F010922E0110925101DE
:1001A00078940895FFCFEEE6F0E08081826080834E
:1001B00084B5826084BD81E085BD83E987BD0895F3
:1001C0001F920F920FB60F9211248F939F938091DD
:1001D0005E0190915F01019690935F0180935E01B3
:1001E00083B18093010189B1809302018091030161
:1001F00088B9809104018BB981E0809300019F91BF
:100200008F910F900FBE0F901F90189510920601BE
:1002100010920701109208011092090110920A0130
:1002200010920B0110920C0110920D0110925201CC
:1002300010925301109254011092550110925601E0
:1002400010925701109258011092590184B1807C8C
:1002500084B98AB18F738AB987B18F6387B98AB13C
:100260008C608AB9F8DE9FDF78940895CFDF8FEF36
:1002700087B980E24EDF86E54CDF80E34ADF8EE21D
:1002800048DF80E346DF80E344DF22E091E08091B5
:100290000001882339F01092000180910301822728
:1002A00080930301F89488B1892788B97894EFCFB7
:0402B000F894FFCFF0
:00000001FF
