:1000000019C028C027C026C025C024C023C022C0D4
:1000100021C020C01FC01EC01DC01CC0D1C01AC03E
:1000200019C018C02CC016C04AC014C013C012C0DA
:1000300011C010C011241FBECFEFD2E0DEBFCDBF74
:1000400011E0A0E0B1E001C01D92A836B107E1F7D0
:100050000AD1A5C1D5CF8FE08093C4001092C5000E
:1000600088ED8093C10086E08093C2001092590110
:1000700010922E0110922F011092500108951F929C
:100080000F920FB60F9211248F939F93EF93FF93CC
:100090009091C60080915901803240F4E82FF0E041
:1000A000E05DFE4F90838F5F80935901FF91EF9148
:1000B0009F918F910F900FBE0F901F9018951F92D8
:1000C0000F920FB60F9211242F938F939F93EF935C
:1000D000FF938091500190912F01891780F4E82FB0
:1000E000F0E0E25FFE4F20812093C6008F5F809397
:1000F0005001891720F01092500110922F01FF91AA
:10010000EF919F918F912F910F900FBE0F901F90A5
:100110001895F89490912F01903240F4E92FF0E077
:10012000E25FFE4F80839F5F90932F0178948091D0
:10013000C00085FF14C080915001E82FF0E0E25F1D
:10014000FE4F90819093C6008F5F809350019091F5
:100150002F01891720F01092500110922F0108955D
:1001600081E02091590190912E01921708F080E0D2
:1001700008957894F5DF8823A9F0F89490912E01E2
:10018000E92FF0E0E05DFE4F80819F5F90932E01AC
:1001900020915901921720F010922E0110925901CE
:1001A00078940895FFCFEEE6F0E08081826080834E
:1001B00084B5826084BD82E085BD83E987BD0895F2
:1001C0001F920F920FB60F9211248F939F938091DD
:1001D0006601909167010196909367018093660193
:1001E0008091030188B9809104018BB981E08093EB
:1001F00000019F918F910F900FBE0F901F90189547
:100200001092060110920701109208011092090144
:1002100010920A0110920B0110920C0110920D0124
:10022000EAE5F1E0A1E5B1E011921D9281E0E2364C
:10023000F807D1F781E080935A0184E180935B0154
:1002400084E680935C0184B1807C84B98AB18F7329
:100250008AB987B18F6387B98AB18C608AB9FBDEAE
:10026000A2DF78940895CCDF8FEF87B980E251DF69
:1002700086E54FDF80E34DDF8EE24BDF80E349DF31
:1002800080E347DF62E050E180910001882309F4B8
:1002900080C01092000180916601909167010097E3
:1002A00059F4EAE5F1E0A1E5B1E081918D9381E0B7
:1002B000E236F807D1F768C02091030130910401BC
:1002C000E1E5F1E080E090E04081442359F14150C4
:1002D000408384309105F1F08530910554F48230EB
:1002E0009105A1F0833091059CF48130910551F482
:1002F0000BC08630910591F0863091056CF0873007
:10030000910571F0216036C0226034C0246032C093
:10031000286030C020612EC020622CC034602AC00A
:10032000386028C084309105F1F08530910554F48F
:1003300082309105A1F0833091059CF481309105C4
:1003400051F40BC08630910591F0863091056CF028
:100350008730910571F02E7F0DC02D7F0BC02B7F54
:1003600009C0277F07C02F7E05C02F7D03C03B7FBC
:1003700001C0377F019631968830910509F0A4CFEE
:100380002093030130930401809103018627809319
:100390000301F8948BB185278BB9789475CFF894C5
:0203A000FFCF8D
:00000001FF
