:1000000019C020C01FC01EC01DC01CC01BC01AC00C
:1000100019C018C017C016C015C014C013C012C034
:1000200011C010C00FC00EC00DC00CC00BC00AC064
:1000300009C008C011241FBECFEFD2E0DEBFCDBF84
:1000400002D050C0DDCFCF93DF93269A279A559ADE
:10005000569A579A20E030E0E0E0F0E0C0EDD7E0BB
:100060003196CF01BE012AD0009711F42F5F3F4F88
:10007000C901837090708230910569F083309105D9
:1000800079F08130910519F02E9A2F9802C02E98A0
:100090002F9A5D9803C02E982F985D9A5E9804C0A1
:1000A0002E982F985D985E9AC9018F71907080315B
:1000B000910510F05F9AD4CF5F98D2CFAA1BBB1BDB
:1000C00051E107C0AA1FBB1FA617B70710F0A61B58
:1000D000B70B881F991F5A95A9F780959095BC0179
:0800E000CD010895F894FFCF53
:00000001FF
