:100000000C9434000C9446000C9446000C9446006A
:100010000C9446000C9446000C9446000C94460048
:100020000C9446000C9446000C9446000C94A900D5
:100030000C9446000C9446000C9446000C94460028
:100040000C9446000C9446000C9446000C94460018
:100050000C9446000C9448000C9446000C94460006
:100060000C9446000C94460011241FBECFEFD4E040
:10007000DEBFCDBF11E0A0E0B1E001C01D92AE3007
:10008000B107E1F70E94B3010C94C5010C94000084
:100090001F920F9200905F000F9211242F933F93B5
:1000A0004F935F936F937F938F939F93AF93BF9380
:1000B000EF93FF93CF93DF9300D000D0CDB7DEB79F
:1000C0008CE790E0FC018081882F90E08770992771
:1000D0009A83898388E790E0FC01808191819C83E9
:1000E0008B832B813C8189819A81880F991F865F40
:1000F0009E4FFC013183208389819A810196817012
:1001000099279A8389838CE790E02CE730E0F90106
:100110002081322F387F2981232BFC0120830E94EC
:100120008B010F900F900F900F90DF91CF91FF9167
:10013000EF91BF91AF919F918F917F916F915F915F
:100140004F913F912F910F9000925F000F901F9061
:1001500018951F920F9200905F000F9211242F9319
:100160003F938F939F93EF93FF93CF93DF9300D0B1
:10017000CDB7DEB780910A0190910B010024880F62
:10018000991F001C880F991F001C892F902D9250D9
:10019000909307018093060120910401309105019D
:1001A0008091060190910701820F931F90930501A2
:1001B00080930401809104019091050184E0989F4F
:1001C000812D992711248093000180910001282F0F
:1001D00030E089E190E0022E02C0880F991F0A9456
:1001E000E2F7959587959595879595958795880FCD
:1001F000880F89838091010199819817A1F48091DA
:10020000020190910301813A2FE0920710F01982C8
:100210001BC080910201909103010196909303010C
:100220008093020111C01092030110920201898192
:100230008093010185E290E025E230E0F901308110
:1002400020E22327FC0120838BE290E0FC018081E7
:100250008A838A81837C8A839A818981892B8A8394
:100260008BE290E02A81FC0120830F900F90DF91B8
:10027000CF91FF91EF919F918F913F912F910F908F
:1002800000925F000F901F901895CF93DF93CDB72A
:10029000DEB78BE290E02BE230E0F9012081237C95
:1002A000FC0120838AE290E02AE230E0F90120811B
:1002B0002C63FC012083DF91CF910895CF93DF93CE
:1002C000CDB7DEB780E890E0FC01108281E890E0D5
:1002D0002CE0FC01208388E890E022E030E0FC0183
:1002E000318320838FE690E022E0FC012083DF91C0
:1002F000CF910895CF93DF93CDB7DEB78CE790E031
:1003000020E6FC0120838AE790E02BE8FC012083B3
:10031000DF91CF910895CF93DF93CDB7DEB78AE712
:1003200090E02AE730E0F90120812064FC0120837D
:10033000DF91CF910895CF93DF93CDB7DEB71092C1
:100340000501109204018FEF9FEF909307018093B6
:1003500006010E9445010E947A010E945E01789484
:10036000DF91CF910895CF93DF93CDB7DEB70E9491
:100370009B010E948B0184E290E024E230E0F901CD
:0E03800020812062FC012083FFCFF894FFCF84
:00000001FF
