:1000000019C02BC02AC029C028C027C026C025C0BF
:1000100024C023C022C021C020C01FC01EC01DC0DC
:100020001CC01BC01AC019C018C017C016C015C00C
:1000300014C013C011241FBECFEFD2E0DEBFCDBF6E
:1000400011E0A0E0B1E0E6E8F4E002C005900D9216
:10005000A430B107D9F7F0D014C2D2CFDF93CF9339
:10006000CDB7DEB784E290E024E230E0F9012081F0
:100070002760FC01208387E290E027E230E0F9016D
:1000800020812760FC0120838AE290E02AE230E0B0
:10009000F9012081206EFC012083CF91DF9108952A
:1000A000DF93CF93CDB7DEB785E290E025E230E075
:1000B000F90120812760FC01208388E290E028E29A
:1000C00030E0F9012081287FFC0120838BE290E061
:1000D0002BE230E0F90120812F71FC012083CF91C8
:1000E000DF910895DF93CF93CDB7DEB785E290E03F
:1000F00025E230E0F9012081287FFC01208388E29D
:1001000090E028E230E0F90120812760FC012083A3
:100110008BE290E02BE230E0F9012081206EFC01BF
:100120002083CF91DF910895DF93CF9300D00F927A
:10013000CDB7DEB78B838B81877089838B81887382
:10014000880F880F8A8388E290E028E230E0F90186
:100150002081322F298120952323FC0120838BE2EB
:1001600090E02BE230E0F9012081322F2A812095A6
:100170002323FC0120830F900F900F90CF91DF91EC
:100180000895DF93CF9300D00F92CDB7DEB78B8366
:100190008B81877089838B818873880F880F8A830E
:1001A00088E290E028E230E0F90130812981232BB8
:1001B000FC0120838BE290E02BE230E0F9013081FA
:1001C0002A81232BFC0120830F900F900F90CF9159
:1001D000DF910895DF93CF9300D0CDB7DEB78A8348
:1001E0008A818770898385E290E025E230E0F90119
:1001F00030812981232BFC0120830F900F90CF9118
:10020000DF910895DF93CF9300D0CDB7DEB78A8317
:100210008A818770898385E290E025E230E0F901E8
:100220002081322F298120952323FC0120830F90E8
:100230000F90CF91DF910895DF93CF93CDB7DEB7C5
:1002400028970FB6F894DEBF0FBECDBF07DF4ADF99
:1002500076D09E838D838D8187708F838D819E81E3
:10026000887F9170969587959695879596958795B1
:1002700088878F818095C6DF8F81ACDF88858095E8
:1002800080DF888551DF1A82198205C089819A81B1
:1002900001969A83898389819A812FE0803A920717
:1002A000A8F320DF1C821B8205C08B819C810196F4
:1002B0009C838B838B819C812CE980349207A8F3EB
:1002C000C7CFA0E0B0E0E6E6F1E08AC0EC016881CB
:1002D00079818A819B81611571058105910521F4E0
:1002E00064E279ED8BE597E02DE133EF41E050E0FA
:1002F00054D079018A0127EA31E440E050E02ED061
:100300005B016C01C801B7012CEE34EF4FEF5FEFDA
:1003100025D06A0D7B1D8C1D9D1D97FF04C061506B
:10032000704080409048688379838A839B837F777D
:10033000CB01CDB7DEB7EAE06FC0C3DF089580E040
:1003400091E0BFDF0895A0E0B0E0809300019093BA
:100350000101A0930201B09303010895629FD001AF
:10036000739FF001829FE00DF11D649FE00DF11D70
:10037000929FF00D839FF00D749FF00D659FF00D1F
:100380009927729FB00DE11DF91F639FB00DE11D0C
:10039000F91FBD01CF011124089597FB092E0526F1
:1003A0000ED057FD04D04BD00AD0001C38F4509525
:1003B0004095309521953F4F4F4F5F4F0895F6F789
:1003C00090958095709561957F4F8F4F9F4F0895C1
:1003D0002F923F924F925F926F927F928F929F9255
:1003E000AF92BF92CF92DF92EF92FF920F931F9343
:1003F000CF93DF93CDB7DEB7CA1BDB0B0FB6F894F4
:10040000DEBF0FBECDBF09942A88398848885F8433
:100410006E847D848C849B84AA84B984C884DF80A4
:10042000EE80FD800C811B81AA81B981CE0FD11D88
:100430000FB6F894DEBF0FBECDBFED010895A1E267
:100440001A2EAA1BBB1BFD010DC0AA1FBB1FEE1F4E
:10045000FF1FA217B307E407F50720F0A21BB30B99
:10046000E40BF50B661F771F881F991F1A9469F715
:1004700060957095809590959B01AC01BD01CF0171
:060480000895F894FFCF7F
:040486000100000071
:00000001FF
