:1000000019C02BC02AC029C028C027C026C025C0BF
:1000100024C023C022C021C020C01FC01EC01DC0DC
:100020001CC01BC01AC019C018C017C016C015C00C
:1000300014C013C011241FBECFEFD2E0DEBFCDBF6E
:1000400011E0A0E0B1E0ECE2F2E002C005900D9218
:10005000A231B107D9F75CD0E7C0D2CF84B18760B5
:1000600084B987B1876087B98AB1806E8AB984B153
:100070008FEF84B997B187B99AB18AB9089585B1DC
:10008000876085B988B1887F88B98BB18F718BB94A
:10009000089585B1887F85B988B1876088B98BB1AB
:1000A000806E8BB9089528B1982F97709095922300
:1000B00098B99BB18873880F880F809589238BB975
:1000C000089528B1982F9770922B98B99BB1887397
:1000D000880F880F892B8BB908951F93182F80954F
:1000E000F0DF812FE0DF1F91089595B18770892B94
:1000F00085B9089595B187708095892385B908954C
:100100001F93182F8095F6DF812FEFDF1F91089541
:10011000AF92BF92CF92DF92EF92FF920F931F9315
:10012000DF93CF93CDB7DEB763970FB6F894DEBFFA
:100130000FBECDBFDE011196ECE0F1E086E001904C
:100140000D928150E1F7DE011796E6E0F1E086E0DE
:1001500001900D928150E1F7DE011D96E0E0F1E0A3
:1001600086E001900D928150E1F778DF92DF97E011
:10017000E92EF12CEC0EFD1E8E01035F1F4F83E173
:10018000C82ED12CCC0EDD1E5E010894A11CB11C22
:1001900081E0B6DF90E011C03191220F81E093172A
:1001A00008F080E0822B282FE017F107A9F79B8B3E
:1001B00094DF9B899F5F9F3F19F0F70120E0ECCF10
:1001C00068DF82E09DDF90E011C03191220F81E075
:1001D000931708F080E0822B282FEC15FD05A9F776
:1001E0009B8B7BDF9B899F5F9F3F19F0F80120E08D
:1001F000ECCF4FDF84E084DF90E011C03191220F1B
:1002000081E0931708F080E0822B282FEE15FF0580
:10021000A9F79B8B62DF9B899F5F9F3F19F0F501D8
:0C02200020E0ECCF36DFB4CFF894FFCF25
:10022C0000000000A0FF0010A0FFA000FFFFA00036
:02023C000000C0
:00000001FF
