:1000000019C033C032C031C030C02FC02EC02DC087
:100010002CC02BC02AC029C028C027C026C025C09C
:1000200024C023C045C021C076C0BEC11EC01DC0B3
:100030001CC01BC011241FBECFEFD2E0DEBFCDBF5E
:1000400011E0A0E0B1E0ECEEF4E002C005900D920A
:10005000AC30B107D9F711E0ACE0B1E001C01D92BE
:10006000A036B107E1F7FED13FC2CACFDF93CF93ED
:10007000CDB7DEB784EC90E02FE0FC01208385EC67
:1000800090E0FC01108281EC90E028EDFC012083DF
:1000900082EC90E026E0FC01208310924F01109248
:1000A0002C0110922D0110924E01CF91DF910895F5
:1000B0001F920F920FB60F9211242F938F939F933D
:1000C000EF93FF93DF93CF930F92CDB7DEB786EC1C
:1000D00090E0FC018081898380914F01803270F42F
:1000E00080914F01882F90E0825D9E4F2981FC0115
:1000F000208380914F018F5F80934F010F90CF91AC
:10010000DF91FF91EF919F918F912F910F900FBEF3
:100110000F901F9018951F920F920FB60F921124F7
:100120002F933F938F939F93EF93FF93DF93CF93FF
:10013000CDB7DEB790914E0180912D019817D8F47C
:1001400086EC90E020914E01222F30E0245F3E4F5C
:10015000F9012081FC01208380914E018F5F809303
:100160004E0190914E0180912D01981720F0109230
:100170004E0110922D01CF91DF91FF91EF919F9150
:100180008F913F912F910F900FBE0F901F90189558
:10019000DF93CF930F92CDB7DEB7898378940000B9
:1001A00080912D018032E0F7F89480912D01882F05
:1001B00090E0845F9E4F2981FC01208380912D0176
:1001C0008F5F80932D01789480EC90E0FC0180811A
:1001D000882F90E0807290700097D9F086EC90E0C4
:1001E00020914E01222F30E0245F3E4FF901208103
:1001F000FC01208380914E018F5F80934E0190918E
:100200004E0180912D01981720F010924E0110920E
:100210002D010F90CF91DF910895DF93CF93CDB74C
:10022000DEB720914F0190912C0181E0921708F0E8
:1002300080E0CF91DF910895DF93CF930F92CDB7F8
:10024000DEB778940000E9DF8823E9F3F894809121
:100250002C01882F90E0825D9E4FFC018081898374
:1002600080912C018F5F80932C0190912C018091C3
:100270004F01981720F010922C0110924F017894A2
:1002800089810F90CF91DF910895DF93CF9300D0B4
:10029000CDB7DEB79A8389830AC089819A81FC0130
:1002A000808176DF89819A8101969A838983898109
:1002B0009A81FC018081882381F70F900F90CF9164
:1002C000DF910895DF93CF9300D00F92CDB7DEB7C3
:1002D0008B838B818F70898389818A3018F489811F
:1002E000805D02C08981895C8A838A810F900F902A
:1002F0000F90CF91DF910895DF93CF9300D0CDB7CA
:10030000DEB78A838A818A3318F48A8180530DC0CC
:100310008A81873418F48A81875307C08A81873697
:1003200018F48A81875501C080E0898389810F9004
:100330000F90CF91DF910895DF93CF9300D00F926C
:10034000CDB7DEB78B838B818F7089838B8182954C
:100350008F708A8389818A3010F480E301C087E33B
:100360009981890F15DF8A818A3010F480E301C0FA
:1003700087E39A81890F0CDF0F900F900F90CF9138
:10038000DF910895DF93CF93CDB7DEB78CE790E090
:1003900020E6FC01208378948AE790E02BECFC01B6
:1003A0002083CF91DF9108951F920F920FB60F9285
:1003B00011242F933F938F939F93EF93FF93DF939A
:1003C000CF9300D000D0CDB7DEB78CE790E0FC0132
:1003D0008081882F90E0877090709A83898388E766
:1003E00090E0FC01808191819C838B8389819A813B
:1003F000880F991F805B9E4F2B813C81FC013183CC
:10040000208389819A810196877090709A8389836D
:100410008CE790E02CE730E0F9012081322F387F23
:100420002981232BFC0120838AE790E02BECFC013F
:1004300020832496DEBFCDBFCF91DF91FF91EF9156
:100440009F918F913F912F910F900FBE0F901F9012
:100450001895DF93CF93CDB7DEB708DE93DFCF914A
:10046000DF910895DF93CF93CDB7DEB727970FB60F
:10047000F894DEBF0FBECDBFECDF80E091E005DF7A
:1004800088E091E002DF1A82198203C0000001C0F7
:10049000000089819A8101969A838983BEDE882330
:1004A000A9F3CADE8B838B81882F90E0C0978830B8
:1004B000910570F78B81882F90E0C097880F991F66
:1004C000805B9E4FFC01808191819D838C838C8118
:1004D0009D81892F99278E838C818F838E812CDF3C
:0C04E0008F812ADF0000D5CFF894FFCFF9
:0C04EC00546573740A0D00003E0000000F
:00000001FF
